:020000040000fa
:10000000f0ff0320052a0100afdd00009fe900009a
:10001000e3080100af0c01007f1a0100000000009e
:1000200000000000000000000000000073bb0000a2
:10003000470301000000000073bb0000356e0100a3
:1000400073bb000073bb000073bb000073bb0000f8
:1000500073bb000073bb000073bb000073bb0000e8
:1000600073bb000073bb000073bb0000c56a0100d6
:1000700073bb000073bb000073bb000073bb0000c8
:1000800073bb000073bb000073bb0000f56f010081
:1000900073bb000073bb000073bb000073bb0000a8
:1000a00073bb000073bb000073bb000073bb000098
:1000b00073bb000073bb000073bb00004b7d0100ed
:1000c000557d01005f7d0100697d010073bb00006b
:1000d00073bb000073bb000073bb000073bb000068
:1000e00073bb000073bb00000000000000000000b4
:1000f0000000000073bb000073bb000073bb000076
:1001000073bb000073bb000073bb000073bb000037
:1001100073bb000073bb000073bb000073bb000027
:1001200073bb000073bb000073bb000073bb000017
:1001300073bb000073bb000075bb000075bb000003
:1001400075bb000075bb000073bb000073bb0000f3
:1001500073bb000073bb000099c4000099c4000089
:1001600099c4000099c4000073bb000073bb000079
:1001700073bb000073bb000073bb000073bb0000c7
:1001800073bb000073bb000073bb000073bb0000b7
:1001900073bb000073bb000073bb000073bb0000a7
:1001a00073bb000073bb000073bb000073bb000097
:1001b00073bb000073bb000073bb000073bb000087
:1001c00073bb000073bb000073bb000073bb000077
:1001d00073bb000073bb000073bb000073bb000067
:1001e00073bb000073bb000073bb000073bb000057
:1001f00073bb000073bb000073bb000073bb000047
:1002000073bb000073bb000073bb000073bb000036
:1002100073bb000073bb000073bb000073bb000026
:1002200073bb000073bb000073bb000073bb000016
:1002300073bb000073bb000073bb000073bb000006
:1002400073bb000073bb000073bb000073bb0000f6
:1002500073bb000073bb000073bb000073bb0000e6
:0402600073bb00006c
:020000040000fa
:10026400f8b500bff8bc08bc9e467047555601005f
:10027400f8b500bff8bc08bc9e4670473156010073
:020000040000fa
:080284004084000001000000ad
:020000040000fa
:10028c002de9f8430446ac2606fb00f6be4d35447a
:10029c0095f87c30012b25d0bb4aac2303fb0423ff
:1002ac00596d93f86d30192b01f23181dfe813f0a1
:1002bc0087059005cd051b07fc0520063f06850626
:1002cc009f06bc06fc06df06480771078b07aa07ca
:1002dc00c707e207ff07440867088908a608c30890
:1002ec000a090a09002285f87c2095f86b30032b4b
:1002fc0015d8dfe813f004001c002e00e101a24a1f
:10030c00ac2303fb0023d96b284616f0fdfc30b15f
:10031c009d4aac2303fb0423012283f86b209a4ae9
:10032c00ac2303fb0423002283f87c20b4e7964a19
:10033c00ac2303fb002393f82230002befd0ac232b
:10034c0003fb0023002283f82220022283f86b2077
:10035c00e5e78d4aac2303fb002393f86e30072ba3
:10036c0000f26b81dfe813f008004a0083006000a4
:10037c00b600de0014012f01834aac2303fb0023db
:10038c00012283f871208149284614f099fc68b346
:10039c007d4aac2303fb0423012283f86e207a4aa6
:1003ac00ac2303fb0423002283f8442093f845304c
:1003bc00002b00f07181744aac2303fb0423002250
:1003cc0083f84520704aac2303fb0423002283f8f6
:1003dc006b2083f846206e6d002e00f055816a4b21
:1003ec00ac2707fb04374ff001083de1664aac230c
:1003fc0003fb0423002283f87120d0e7624aac236c
:10040c0003fb0023012283f871200a22d96a2846b3
:10041c0015f081fc0028c2d05b4aac2303fb0423fb
:10042c00032283f86e20bae7574aac2303fb002360
:10043c0093f86a30dbb2012b12d0534aac2303fb86
:10044c00002393f86a30dbb2022ba8d1ac2303fb58
:10045c000023012283f86e20002283f871209ee78e
:10046c00ac2303fb0023022283f86e2097e70022c3
:10047c00114603f057fa444aac2303fb042393f8c8
:10048c006f300c2b0cd00b2b89d13f4aac2303fbc8
:10049c000423002283f87120012283f86e207ee76a
:1004ac00ac2303fb0423002283f8712093f87430ef
:1004bc00012b07d0344aac2303fb0423012283f81d
:1004cc006e206ce7304aac2303fb0423082283f82c
:1004dc006e2010e02c4aac2303fb002393f8713000
:1004ec00022b08d0ac2303fb0023012283f87120dc
:1004fc00052283f86e20244aac2303fb042301223b
:10050c0083f8442093f84530934200f0c5801e4a8e
:10051c00ac2303fb0423012283f84520032283f838
:10052c006b20fce60022042103f0fcf9164aac23f4
:10053c0003fb042393f86f300c2b0cd00b2bdad16c
:10054c00114aac2303fb0423002283f871200122ff
:10055c0083f86e2023e7ac2303fb042393f8743059
:10056c0033b9ac2303fb0423062283f86e20c2e7c5
:10057c00054aac2303fb0423002283f871200122db
:10058c0083f86e200be700bf6c420020801a060037
:10059c001422b94901eb4011284613f0d6fd38b1ad
:1005ac00b64aac2303fb0423072283f86e20a2e790
:1005bc00b24aac2303fb0423002283f871200122ee
:1005cc0083f86e20ebe6ad4aac2303fb002393f8d3
:1005dc006a30dbb2012b12d0a84aac2303fb0023f8
:1005ec0093f86a30dbb2022b85d1ac2303fb0023da
:1005fc00002283f87120012283f86e20cfe6ac2311
:10060c0003fb0023002283f8712013229a4901eb8b
:10061c004011586b16f09cfe38b9984aac2303fb7a
:10062c000423042283f86e2065e7944aac2303fb71
:10063c000423012283f86e20b1e6904aac2303fb1d
:10064c000023002283f8442093f8453023b38b4acf
:10065c00ac2303fb0023002283f84520b2e60023e1
:10066c00336233706e6d7eb1336a6b6532797b6841
:10067c0003eb0213d3f80490b9f1000fefd09a6892
:10068c00f1684046c847eae77c4aac2303fb0423e5
:10069c00002283f86e2042e6784aac2303fb042345
:1006ac0093f87130002b7ff43aaeac2303fb042398
:1006bc00002283f86b2032e6704aac2303fb002344
:1006cc0093f87030172b00f20a81dfe813f0180052
:1006dc0037000801510072009f00db00fa00510145
:1006ec00b101d401e50106023302080108014e02f2
:1006fc00ac02d902f4021603350354035d035f4bbd
:10070c00ac2606fb00360023336486f8483096f995
:10071c00683003f01f010127c3f34a1303f50200ed
:10072c0000f5807007fa01f1c00109f059fa54493b
:10073c00284614f0c5fa86f87070f0e54f4aac23e1
:10074c0003fb00230a22d96a284615f0e4fa38b1d3
:10075c004a4aac2303fb0423032283f87020dee512
:10076c00464aac2303fb0423172283f8702017e3bb
:10077c00424aac2303fb002393f86a30dbb2012b13
:10078c0010d03e4aac2303fb002393f86a30dbb253
:10079c00022b7ff4c4adac2303fb0023172283f898
:1007ac007020fde2ac2303fb0023042283f87020ad
:1007bc00b5e50022114603f0b5f8304aac2303fb33
:1007cc00042393f86f300c2b0ad00b2b40f087804e
:1007dc002a4aac2303fb0423172283f87020dfe2a0
:1007ec00ac2303fb042393f87430012b07d0234a6a
:1007fc00ac2303fb0423012283f870208fe5ac2388
:10080c0003fb0423052283f8702088e54ff4d5728e
:10081c00022103f087f8194aac2303fb042393f855
:10082c006f300c2b09d00b2b59d1144aac2303fb82
:10083c000423172283f87020b2e2ac2303fb0423b9
:10084c009b6fc3f30b03b3f5d57f0ad000230b4981
:10085c00ac2202fb041282f82330062382f870309b
:10086c005de5ac2303fb042393f8743083f004039d
:10087c00c3f38003ebe700bfc04900206c420020ab
:10088c00801a06000022102103f04cf8c44aac2355
:10089c0003fb042393f86f300c2b09d00b2b1ed1c8
:1008ac00bf4aac2303fb0423172283f8702077e2a2
:1008bc00ac2303fb0423072283f870200022da7494
:1008cc002de500220f2103f02df8b54aac2303fbd4
:1008dc00042393f86f300c2b36d00b2b3bd0b04a43
:1008ec00ac2303fb042393f87030162b40f0558295
:1008fc00ab49ac2303fb0413002783f847701a6c35
:10090c004ff40070c3f89400c3f89820c3f89c000f
:10091c00c3f8a020c3f8a400c3f8a820182283f8b9
:10092c0080200122c3f88420c3f88820c3f88c20cf
:10093c0094360e44c3f8906083f84620042283f862
:10094c006e2083f86b70eae4ac2303fb04230822cb
:10095c0083f87020e3e4924bac2707fb0437172392
:10096c0087f87030284616f078fe0023fb74b6e743
:10097c008b4bac2707fb003797f8232092071221eb
:10098c0002f0d0ff97f86f300c2b0ed00b2ba6d1aa
:10099c00284616f062fe824aac2303fb0423002295
:1009ac00da74172283f87020fae17d4a97f87430d4
:1009bc00abb17b4aac2303fb0423db7cdbb1784a71
:1009cc00ac2303fb042393f821304bb3ac2303fb80
:1009dc000423172283f870200022da74e0e1ac279c
:1009ec0007fb0427092387f87030284616f035fedc
:1009fc000023fb7473e74ff47a71284616f0a8f9bc
:100a0c0038b9674aac2303fb0423172283f8702000
:100a1c00c6e1634aac2303fb04230122da74cee75c
:100a2c005f4aac2303fb0423072283f8702076e48f
:100a3c000022102102f076ff594aac2303fb042359
:100a4c0093f86f300c2b0ad00b2b7ff448af544a21
:100a5c00ac2303fb0423172283f87020a0e1ac2302
:100a6c0003fb04239a6fc2f3807283f848200a2296
:100a7c0083f8702053e44a4bac2606fb0036b16b6e
:100a8c00284614f01df90a22b16a284613f05dfbc2
:100a9c000b2386f8703042e4414aac2303fb00235d
:100aac0093f86a30dbb2012b10d03d4aac2303fb28
:100abc00002393f86a30dbb2022b7ff430acac230a
:100acc0003fb0023172283f8702069e1ac2303fb9e
:100adc0000230c2283f8702021e40022032102f071
:100aec0021ff2f4aac2303fb042393f86f300c2b0c
:100afc000ad00b2b7ff4f3ae294aac2303fb04235f
:100b0c00172283f870204be1ac2303fb042393f8ea
:100b1c0074303bb9ac2303fb04230d2283f8702003
:100b2c00fff7fdbb1e4aac2303fb0423172283f8fb
:100b3c00702035e11a4aac2303fb00231422196bf5
:100b4c00284613f002fb40b1154aac2303fb0423e7
:100b5c00102283f87020fff7e2bb114aac2303fb91
:100b6c000423172283f870201ae10d4aac2303fbef
:100b7c00002393f86a30dbb2012b13d0084aac2364
:100b8c0003fb002393f86a30dbb2022b7ff4c7ab74
:100b9c00ac2303fb0023172283f8702000e100bf75
:100bac006c420020ac2303fb00231a6b1378fe2b42
:100bbc0008bf0132137813f0c00f14d0d3791b0483
:100bcc0003f47c13117a43ea0123527a1343013361
:100bdc009b02c649ac2202fb04121364112382f857
:100bec007030fff79cbb907900f00300d37943ea97
:100bfc000020517a490001f00601137a9b0943ea5f
:100c0c0080030133907a41ead011023103fa01f1e9
:100c1c00537903f00f03a3f10902012393409bb214
:100c2c0003fb01f3d5e70022042102f07bfeaf4a5f
:100c3c00ac2303fb042393f86f300c2b0ad00b2b43
:100c4c007ff44daea94aac2303fb0423172283f88f
:100c5c007020a5e0ac2303fb042393f874303bb95c
:100c6c00ac2303fb0423122283f87020fff757bb3d
:100c7c009e4aac2303fb0423172283f870208fe0d9
:100c8c009a4aac2303fb00231422596b284613f019
:100c9c005cfa40b1954aac2303fb0423132283f87e
:100cac007020fff73cbb914aac2303fb04231722b3
:100cbc0083f8702074e08d4aac2303fb002393f877
:100ccc006a30dbb2012b10d0884aac2303fb002323
:100cdc0093f86a30dbb2022b7ff421abac2303fb1d
:100cec000023172283f870205ae0ac2303fb002367
:100cfc00142283f87020fff712bb0022112102f09e
:100d0c0011fe7a4aac2303fb042393f86f300c2baf
:100d1c000ad00b2b7ff4e3ad744aac2303fb042302
:100d2c00172283f870203be0ac2303fb042315222d
:100d3c0083f87020fff7f3ba4ff40072072102f02a
:100d4c00f1fd6a4aac2303fb042393f86f300c2ba0
:100d5c000ad00b2b7ff4c3ad644aac2303fb0423f2
:100d6c00172283f870201be0ac2303fb042316220c
:100d7c0083f87020bce55d4aac2303fb0023002202
:100d8c0083f87020fff7cbba584aac2303fb00233f
:100d9c00002283f87020fff7c2ba172b7ff4bfaa8a
:100dac00524aac2303fb0423002283f8442083f82b
:100dbc00452083f86e2083f86b20fff7b0ba4b4abe
:100dcc00ac2303fb042393f84630012b40f09f83a4
:100ddc00464aac2303fb042393f87130002b40f0fc
:100dec009683e9b1414aac2303fb0423022283f826
:100dfc0071200a7293f8483013b94b695b024b614e
:100e0c004b7fa3b98b69012b0cbf082309230b77ec
:100e1c00364aac2303fb0423022283f86d2076e3cd
:100e2c00ac2303fb0423002283f86d206fe38b6952
:100e3c00012b0cbf0a230b230b772c4aac2303fb8f
:100e4c000423032283f86d2061e34a69097f20465d
:100e5c0002f068fd254aac2303fb042393f86f30a2
:100e6c000c2b0ad00b2b40f05283204aac2303fbf3
:100e7c000423192283f86d2049e3ac2303fb0423dc
:100e8c0093f8743043b9ac2303fb04230022da74c7
:100e9c00052283f86d203ae3144aac2303fb0423a8
:100eac00192283f86d2032e3104aac2303fb042390
:100ebc0093f86a30dbb2012b10d00c4aac2303fb45
:100ecc00042393f86a30dbb2022b40f02083ac236e
:100edc0003fb0423192283f86d2018e3ac2303fbd6
:100eec00042393f86c2083f86d2010e36c420020ef
:100efc00bf4aac2303fb04230122996a284613f052
:100f0c0024f950b1ba4aac2303fb0423062283f81c
:100f1c006c20042283f86d20f9e2b54aac2303fb64
:100f2c0004230022da74192283f86d20efe2b04a10
:100f3c00ac2303fb04239b6a1b78fe2b15d0ac4a15
:100f4c00ac2303fb0423db7cdbb1a94aac2303fbfe
:100f5c00042393f8213043b3ac2303fb0423002276
:100f6c00da74192283f86d20d1e2ac2606fb042634
:100f7c00072386f86d30284616f06ffb0023f374b8
:100f8c00c5e2fa21284615f0e3fe38b9984aac239d
:100f9c0003fb0423192283f86d20b8e2944aac2396
:100fac0003fb04230122da74cfe7914aac2303fb41
:100fbc000423052283f86d20a9e24ff4007209691d
:100fcc00284613f0c2f850b1894aac2303fb042322
:100fdc00082283f86c20042283f86d2097e2844a5f
:100fec00ac2303fb0423192283f86d208fe2804a83
:100ffc00ac2303fb04230222996a284613f0a5f8bc
:10100c0050b17b4aac2303fb0423092283f86c20e8
:10101c00042283f86d207ae2754aac2303fb042387
:10102c00192283f86d2072e20b7f092b07d0704ace
:10103c00ac2303fb04230b2283f86d2067e28b693e
:10104c00013b8b613bb96a4aac2303fb04230a22a4
:10105c0083f86d205be20b6903f500730b61644a46
:10106c00ac2303fb0423052283f86d204fe2604a76
:10107c00ac2303fb04230122996a284613f065f87c
:10108c0050b15b4aac2303fb0423182283f86c2079
:10109c00042283f86d203ae2554aac2303fb042367
:1010ac00192283f86d2032e200220521204602f03d
:1010bc0039fc4f4aac2303fb042393f86f300c2b01
:1010cc000ad00b2b40f02382494aac2303fb0423a8
:1010dc00192283f86d201ae2ac2303fb04230b22a4
:1010ec0083f86d2013e24a69097f204602f01afc4e
:1010fc003f4aac2303fb042393f86f300c2b0ad02c
:10110c000b2b40f004823a4aac2303fb0423192234
:10111c0083f86d20fbe1ac2303fb042393f87430bc
:10112c0033b9ac2303fb04230c2283f86d20eee1ce
:10113c002f4aac2303fb0423192283f86d20e6e12c
:10114c000b7f0b2b2a4a4ff0ac0303fb04239b6a47
:10115c000cbffc22fe221a70254aac2303fb04238d
:10116c000122996a284612f0c1ff50b1204aac23e3
:10117c0003fb04230d2283f86c20042283f86d20da
:10118c00c5e11b4aac2303fb0423192283f86d2011
:10119c00bde14ff400720969284612f0a7ff50b167
:1011ac00134aac2303fb04230e2283f86c20042285
:1011bc0083f86d20abe10e4aac2303fb0423192208
:1011cc0083f86d20a3e10a4aac2303fb042302221b
:1011dc00d96a284612f08aff60b1054aac2303fb9a
:1011ec0004230f2283f86c20042283f86d208ee1f7
:1011fc006c420020b24aac2303fb0423192283f86f
:10120c006d2084e1ae4aac2303fb04230122996ace
:10121c00284612f09aff50b1a94aac2303fb0423d1
:10122c00102283f86c20042283f86d206fe1a44a0d
:10123c00ac2303fb0423192283f86d2067e1a04a39
:10124c00ac2303fb04239b6a1b7803f01f03052bc1
:10125c0006d0ac2303fb0423192283f86d2056e13e
:10126c00974aac2303fb0423112283f86d20002240
:10127c00da744ce1924aac2303fb04230122996af1
:10128c00284612f062ff50b18d4aac2303fb0423b5
:10129c00122283f86c20042283f86d2037e1884aef
:1012ac00ac2303fb0423192283f86d202fe1844a1d
:1012bc00ac2303fb04239b6a1b7883bbac2303fb8b
:1012cc000423db7c7bb17e4aac2303fb042393f821
:1012dc002130e3b1ac2303fb04230022da7419227e
:1012ec0083f86d2013e1fa21284615f031fd38b949
:1012fc00734aac2303fb0423192283f86d2006e107
:10130c006f4aac2303fb04230122da74dbe76c4a3b
:10131c00ac2303fb0423112283f86d20f7e028464d
:10132c0016f09bf9664aac2303fb04230022da7403
:10133c00132283f86d20eae00b7f0b2b07d0604a59
:10134c00ac2303fb04230b2283f86d20dfe08b69b5
:10135c00013b8b613bb95a4aac2303fb0423142297
:10136c0083f86d20d3e00b6903f500730b61544acd
:10137c00ac2303fb04230c2283f86d20c7e0504af6
:10138c00ac2303fb04239a6afd2111700122996a94
:10139c00284612f0abfe60b1494aac2303fb042390
:1013ac00152283f86c20042283f86d200022da7455
:1013bc00ade0434aac2303fb0423192283f86d20d0
:1013cc00a5e03f4aac2303fb04230122996a28467b
:1013dc0012f0bbfe50b13a4aac2303fb0423162295
:1013ec0083f86c20042283f86d2090e0344aac23ff
:1013fc0003fb0423192283f86d2088e0304aac23c8
:10140c0003fb04230122996a284612f09efe50b178
:10141c002b4aac2303fb0423172283f86c200422f1
:10142c0083f86d2073e0264aac2303fb04231922b6
:10143c0083f86d206be0224aac2303fb04239b6ae8
:10144c001b7883bbac2303fb0423db7c7bb11c4ae2
:10145c00ac2303fb042393f82130e3b1ac2303fb4f
:10146c0004230022da74192283f86d204fe0fa214c
:10147c00284615f06dfc38b9114aac2303fb042344
:10148c00192283f86d2042e00d4aac2303fb0423a0
:10149c000122da74dbe70a4aac2303fb042316228d
:1014ac0083f86d2033e0284616f0d7f8044aac23b5
:1014bc0003fb04230022da74182283f86d2026e043
:1014cc006c420020182b19bf4ff0ff330120002372
:1014dc0018460b720e79124bac2202fb0432536885
:1014ec0003eb06135e6816b19a68c968b0476b6d5a
:1014fc0023b11a6a6a6500221a621a70084aac2370
:10150c0003fb0423002283f8712083f86d20044a26
:10151c00ac2303fb0424012384f87c30bde8f8835e
:04152c006c420020ed
:020000040000fa
:101530002de9f04f97b0119089469046019311a87c
:1015400012f0c4fe0028c0f2a183bb4b53f8203038
:101550000bb100221a70b94b13f8105003eb400383
:1015600093f801a0b64bb9f1000f08bf9946284681
:1015700016f0a0fa10f0010f40f08a8310f0040f6b
:1015800040f08b83d9f804301593002b60d0159a66
:10159000531eb3f5004f65d30123159399f80170dd
:1015a0007b1edbb2022b28bf0127d9f80860731e0f
:1015b000b3f5004f59d206f00f03002b18bf4ff4bc
:1015c0000076d9f80c40b4f1807f51d8631e2340d7
:1015d000002b18bf0024019bb3f5007fc0f05f8390
:1015e000b8f1000f00f05d8399f8003002930023fa
:1015f0001493baf1000f3dd0012300224146284642
:1016000015f01ef9002840f04e8398f8ff2198f855
:10161000fe3143ea02231bb28a4a934240f04583db
:1016200008eb0a1909f5d779baf1040f00f23f83e4
:1016300099f80430002b00f03c8309f1080016f003
:1016400033f8039009f10c0016f02ef8149027e0ff
:1016500015aa0321284614f02afb002897d001235d
:1016600015939be71a4297d198e74ff40076a8e7c5
:101670000024b0e714aa0121284614f018fb002822
:1016800040f01983029b13f0080f07d1149b3f2be6
:101690005cd93f3b14933f23039301e00023039362
:1016a000ddf850c0bcf17f0f40f20783b4f5813ff5
:1016b00034bf630a8023029a12f002010b9148d0d2
:1016c00002f00102002a0cbf032202220992bb464b
:1016d0004fea1c3ec6f3161207920398411c0d9167
:1016e0000a440692159a511e0491524205924feafd
:1016f0005c420e9200f120020c920f970a96109510
:10170000099d032d00f0ef82002b42d01c46bcfb4c
:10171000f4f240f6f5718a4250d90232520002f2d8
:10172000ff12510a069a01fb0b27049a3a440598c6
:101730000240d21bb2fbfbf00bfb1020002844d070
:10174000013a039802300890022041e000230393fd
:10175000a6e7029a12f0010f00f0b182022209926c
:10176000b5e72346cde7384a944510d9374a911c4e
:10177000022422460a9e0e98824206d8640031f85e
:10178000022f002af8d10a96b1e20a96afe20124ac
:10179000ade2bcf5805f0fd32d4a911c02240422d8
:1017a0000a9e724506d8640031f8022f002af8d14b
:1017b0000a96ace70a96aae70124a8e702eb4202e0
:1017c0000132520803320125a9e70d980890012043
:1017d000b2fbfbf20a440799039ebf1b07eb0417f9
:1017e000bc45c0f0708200eb0109aceb09090bfbb2
:1017f0001299b9fbf4f9032d13d0022d3cd14ff609
:10180000f577b9452ad9002b40f06b826400402c53
:10181000a7d90b9a002a40f06682802c1cd8234658
:101820006fe74ff6f577b94526d8002b40f04d828b
:10183000012c0fd9630864e7144c0020284c0020c9
:10184000a47a010055aaffffffff0100947a01006e
:10185000847a01000e231ce20e231ae240f6f5768c
:10186000b14500f2fc80002b40f031826300802bf8
:101870007ff647af0e230ce20f9f0a9e069105905c
:1018800004922b460995109d012b40f00c8140f6e7
:10189000f573994500f21d824ff400720021404615
:1018a00016f018fa0b22d749404615f099ff00238d
:1018b00088f80b30022388f80c3088f80d40059b1f
:1018c00088f80e30c3f3072388f80f3088f81070bb
:1018d00088f81160c6f3072688f812601499b1f5ec
:1018e000803f80f0018188f81310c1f3072188f848
:1018f0001410019b5b0a0593f82388f815303f23e9
:1019000088f81830002388f81930ff2288f81a2048
:1019100088f81b30039908f11c0016f0a3f8099b06
:10192000032b00f0e68015f0cff9014608f12700ff
:1019300016f098f8049b88f81630c3f3072388f84c
:101940001730802388f82430292388f82630132282
:10195000ad4908f12b0015f043ff552388f8fe31ff
:10196000aa2388f8ff310123039a4146284614f040
:101970007bfd002840f0af81019b23f4ff7222f031
:1019800001020021404616f0a5f9bbf1000f00f05e
:10199000cb81099b012b9d4b18bf6ff0070301936f
:1019a0004ff0000908f1040307930a94089ecdf84c
:1019b0000cb02f46cdf82ca0ddf814b0099b032bfa
:1019c00000f00f810199404616f04cf8049d4ff449
:1019d000007a2c465d4528bf5c4623463246414688
:1019e000384614f041fd002840f07781524600212e
:1019f000404616f06ff926442d1bead109f1010982
:101a0000039b4b45dad80a9c08963d46ddf82ca08e
:101a1000069b099a032a08bf23461e46089fddf845
:101a2000149034464e4528bf4c4623463a4641461c
:101a3000284614f019fd002840f051812744361b38
:101a4000efd1099a032a00f0e980149bb3f5803f97
:101a500080f0f580022a0cbf04240124dfe00f9ff0
:101a60000a9e0691059004920995109d4ff400720c
:101a70000021404616f02ef90b226249404615f02f
:101a8000affe002388f80b30022388f80c3088f86a
:101a90000d40059b88f80e30c3f3072388f80f30fc
:101aa00088f8107014e74ff400720021404616f0d9
:101ab00011f90b225349404615f092fe002388f895
:101ac0000b30022388f80c3088f80d40059b88f80d
:101ad0000e30c3f3072388f80f3088f81070099b85
:101ae000032b08bf0026f3e608f1200015f0baff2b
:101af000ffe615f0e9f8014608f1430015f0b2ffe2
:101b0000049908f1240015f0adff022108f12c0022
:101b100015f0a8ff012688f83060002388f83130de
:101b2000062288f8322088f83330802388f8403045
:101b3000292388f842301322354908f1470015f06f
:101b40004ffe552388f8fe31aa2388f8ff3133462b
:101b5000039a4146284614f087fc08b1012398e017
:101b60000123039eb21d4146284614f07dfc4ff42c
:101b700000720021404616f0adf82649404615f0a7
:101b800071ff254908f5f27015f06cff09f1ff317e
:101b900008f5f47015f066ff022108f5f67015f0ef
:101ba00061ff552388f8fe31aa2388f8ff3101230d
:101bb000f21d4146284614f057fc01230d9a414678
:101bc000284614f051fc019b23f4ff7222f001021d
:101bd0000021404616f07ef8bbf1000f7ff4d9ae2d
:101be00016e76ff00701404615f03cff4ff0ff315c
:101bf000079815f037ff6ff0704108f1080015f0f5
:101c000031ffe3e6484b0100684b0100f8ffff009d
:101c1000544b010052526141727241610c24baf17d
:101c2000000f0ed1029b13f0080f21d000221146a5
:101c3000284614f03cf8031c18bf012329e00624b1
:101c4000ede7012300224146284614f0f9fd08b1d2
:101c500001231ee008eb0a1a8af8b2410123002290
:101c60004146284614f000fc0028dfd0012310e094
:101c7000149b1293002313934346224612a928462d
:101c80000af006f903460028d0d002e00b2300e05a
:101c90000323184617b0bde8f08f0a23f9e7112394
:101ca000f7e71123f5e70123f3e70e23f1e70e230e
:101cb000efe70e23ede70123ebe70e23e9e713231c
:101cc000e7e70e23e5e70e23e3e70e23e1e70e2324
:101cd000dfe70e23dde70123dbe70123d9e701235b
:101ce000d7e70b9af2b1002b3ff43dad1c46bcfb8d
:101cf000f4f18a0002f20722520aa1f57f41f63977
:101d00000c488142ddd80c9d02fb0b5704997918d1
:101d100005980140c91b01f12000691808910021b4
:101d2000032559e50e23b4e7069e089fddf81490bd
:081d300077e600bffffffe0f84
:020000040000fa
:101d38002de9f04fadf50b7d044605920846089352
:101d48000022302852d02e2874d1e36be16c8b42ec
:101d580059d2591ce163187800260027302858d03a
:101d68004ff0010b0df1280a00254ff000084ff045
:101d78000009cde90289caf80050a846a946a0f191
:101d8800300109295bd92e285bd0bbf1000f01d1a6
:101d9800dde90267002a00f0738340f02003652b19
:101da80040f08683959920460af0defcb1f1004f99
:101db80008bf00280ad1959b002b00f06e83e36cc6
:101dc80013b1e36b013be36300200021361841ebbc
:101dd800070794980a9c14f011ffcde90001002c24
:101de80076d1002200230bf0f5fc5de3e36be26c97
:101df800934204d25a1ce26318780122a1e72046d4
:101e080010f093fcf9e72046009210f08efc009a3f
:101e1800a2e7e36be26c16f1ff3647f1ff37934216
:101e280004d25a1ce2631878012297e7204610f082
:101e38007cfcf9e74ff0000b0026002792e72e28dc
:101e48000ed1bbf1000f41d1dde902674ff0010b64
:101e5800e16be36c994233d24b1ce36308788ee75d
:101e6800029b01330293039b43f10003b8f17c0ffb
:101e7800039318dc029b302818bf1d46b9f1000fe8
:101e880004d05af828300a2202fb031109f101098b
:101e9800b9f1090f4af8281010d108f101080122f8
:101ea8004ff00009d4e73028d2d0daf8f03143f007
:101eb8000103caf8f03140f25c45c9e70122c7e7df
:101ec8002046009210f031fc009a58e72e2061e776
:101ed800dde90223bb4208bfb2420fd10a2e77f1d7
:101ee80000030bda059b1e2b02dc34fa03f305d141
:101ef800204615f021fadde9002374e7089b03eb7f
:101f0800d37252105242d317b242bb410ddac64bbc
:101f180022221a60dde900014ff0ff32c34b0bf0bb
:101f280059fc4ff0ff32c14b5de7089ba3f16a02f1
:101f3800d317964277eb03030ddabb4b22221a60c4
:101f4800dde9000100224ff480130bf043fc00226e
:101f58004ff4801347e7b9f1000f05d00a22b9f111
:101f6800080f24dd08f10108082db1464adcb54206
:101f780048dc112e46dc092e0a9cb9d0082e20dc3c
:101f8800204615f0d9f9dde900230bf023fcc6f152
:101f98000809a74b044653f829000d4614f02efef5
:101fa80002460b462046294608f096fd7ce20aab1d
:101fb8000aa953f82830534341f8283009f1010998
:101fc800cde7a6f10903059aa3eb830313441e2b5f
:101fd80002dc34fa03f315d1954ba9f10a0953f839
:101fe800290014f00bfe064620460f4615f0a4f90a
:101ff800dde900230bf0eefb02460b46304639467e
:10200800f1e6984608f1ff330aaa52f82320002a7d
:10201800f7d0092499fbf4f404ebc404b9eb0404e5
:102028001ad0b9f1000fb8bf0934c4f10802804bc7
:10203800dff804c253f8226000230aaa1d46194695
:1020480041450bd123b10aaa42f8283008f101080a
:10205800c4f10904a1442c46002572e0d2f800e03e
:10206800befbf6f0a94200eb030706fb10e09cfb61
:10207800f6f342f8047b00fb03f301f10101dfd121
:10208800002fddd101f07f05a9f10909d8e708f192
:10209800ff3a1d3d0af07f0a4ff0000b0aab53f8d8
:1020a8002a305e0716eb0b024fead30747f100030d
:1020b80016461f465aa3d3e90023bb4208bfb242c3
:1020c800304639461cd214f0ebfa55a3d3e9002365
:1020d80083463946304614f0e3fa0aab43f82a201f
:1020e80008f1ff3303f07f0353450dd1a2456ed0ad
:1020f800002a08bfd0460af1ff3a0af07f0acde766
:1021080032464ff0000be8e7a245f4d1bbf1000fcf
:1021180017d0013c04f07f04a04509f109090dd14d
:102128005a1e02f07f020aa90aa851f8221050f894
:10213800230001430aa8984640f822100aab43f846
:1021480024b0b9f1110fa2ddb9f1120f05d10aab14
:10215800384a53f82430934299d9dff8e0c0dff8c1
:10216800d8a04ff0010e444512d00aab314a53f8bb
:10217800243093420cd9013293420cd1631c03f0f2
:102188007f03984504d00aaa52f82330634502d841
:10219800b9f1120f54d0b9f11c0fb4bf01210921b4
:1021a8000efa01f70d44013f4afa01fb23460022cb
:1021b80043450ed1002ad6d008f1010303f07f036e
:1021c800a3421fd00aa941f828209846cbe7234606
:1021d8009ce70aa8a34250f8236026fa01f01044ad
:1021e8000aaa42f8230007ea06020bfb02f203f1ef
:1021f800010304d118b903f07f04a9f1090903f018
:102208007f03d5e708f1ff3202f07f020aab0aa983
:1022180053f8223043f0010341f82230a3e700bf0e
:1022280000ca9a3b00000000204c0020ffffef7f0f
:102238008c5f01005e70890000ca9a3bff092f0f6e
:10224800444504f1010907d109f07f0808f1ff337b
:102258000aa9002241f823200aab09f07f0953f8a4
:10226800240015f069f80022002306f037ffc8455e
:1022780009d108f1010808f07f0808f1ff330aae18
:10228800002246f8232098a3d3e900230bf0a2faf2
:102298000aab06460f4653f8290015f04df83246aa
:1022a8003b4606f01bff02460b46dde900010bf03a
:1022b80091fa089a05f13503a3eb02090993059be6
:1022c8009945cde9020180f2bb80b9f1000fc0f257
:1022d800bc80ca464ff0010bbaf1340f00f3ba8044
:1022e800caf169009fed740b12f0c2fc9ded021b50
:1022f80014f0f6fdcaf135008ded060b9fed6e0b5f
:1023080012f0b6fcb0ee401af0ee601a9ded020b2a
:1023180015f004fe57ec106b10ee102a3b46dde971
:10232800020115f0e7fd02460b46dde9060106f05d
:10233800d5fecde90201a31c03f07f03434533d04a
:102348000aaa52f82330604a934200f28a8023b9dd
:10235800033404f07f0444450dd05c4b0022dde9d2
:1023680000010bf037fa02460b463046394606f0b4
:10237800b5fe06460f46caf13503012b14dd9fed65
:102388004e1b47ec106b15f0c9fd0022002351ece1
:10239800100b13f0e9ff38b13046394600224c4b98
:1023a80006f09cfe06460f46089b5c42059b32469b
:1023b800e41adde902013b4606f090fedde906235a
:1023c80015f098fd099b621e23f000439a42cde95f
:1023d80000012ddc41ec100b15f09efa00223d4b5c
:1023e80051ec100b13f006fc80b1bbf1000f04d0c8
:1023f800b9eb0a0b18bf4ff0010bdde90001002211
:10240800354b0bf0e7f9cde90001013505f134034f
:102418000334a34209dabbf1000f09d000220023dc
:102428003046394613f0a0ff10b92c4b22221a600f
:1024380028469ded000b15f06dfd51ec100b33e0b7
:10244800ddf814a04ff0000b46e74ff0010b4ff0fa
:10245800000a45e79fed1a7b8ded067b57ec176b5d
:1024680069e71f4a934202d000221e4b77e70334e4
:1024780004f07f0444454ff00002f6d1164b6ee796
:10248800002807dbe36c13b1e36b013be363002a2d
:102498007ff49fac114b16221a60204600220023bd
:1024a80014f021fc002000210df50b7dbde8f08f14
:1024b8000028e7da8de400bf000000000000f03fcc
:1024c8000000000000000000ff64cd1d0000d03fa8
:1024d8000000f03f000040430000e03f204c002097
:1024e8000065cd1d0000e83f0000000065cdcd412e
:020000040000fa
:1024f800204a00201c000000000000008049002045
:102508002000000000000000e04a00201000000049
:1025180000000000f04a0020100000000000000049
:10252800a049002020000000000000006c420020ac
:10253800ac00000000000000c0490020200000009e
:1025480000000000504500206c0000000000000062
:10255800004b002010000000000000001d48002073
:102568000100000000000000304c002001000000c5
:1025780000000000bc310020040000000000000042
:102588005c3a00200400000000000000314c0020ec
:102598000100000000000000bc450020040000000d
:1025a80001000000ffffffffdc48002028000000ba
:1025b80000000000324c0020010000000000000074
:1025c800704a002014000000000000007c49002030
:1025d8000400000000000000c84b002004000000b8
:1025e80000000000cc4b00200400000000000000a8
:1025f800da4800200200000000000000334c0020f0
:102608000100000000000000344c00200100000020
:1026180000000000354c0020010000000000000010
:10262800d04b00200400000001000000160000004c
:10263800d44b002004000000000000002c4c0020b7
:10264800020000000100000000010000364c0020dc
:102658000100000000000000374c002001000000cd
:1026680000000000904b002008000000000000005f
:10267800d84b00200400000000000000dc4b0020c4
:102688000400000000000000e04b002004000000ef
:1026980000000000e44b00200400000000000000df
:1026a800e84b00200400000000000000ec4b002074
:1026b8000400000000000000f04b002004000000af
:1026c80000000000384c002001000000010000005c
:1026d800ff000000f44b0020040000000000000090
:1026e800f84b00200400000000000000394c0020d6
:1026f800010000000100000004000000bc410020af
:10270800b0000000000000003a4c0020010000006a
:1027180000000000fc4b0020040000000000000046
:10272800004c00200400000000000000044c0020c1
:1027380004000000000000002a4c002002000000f5
:1027480000000000084c0020040000000000000009
:102758003b4c002001000000000000003c4c002021
:1027680001000000000000000c4c002004000000e4
:1027780000000000104c00200400000000000000d1
:1027880000400020fc00000000000000104b00206a
:10279800100000000000000020470020400000005a
:1027a800000000006047002040000000000000001a
:1027b800a04700204000000000000000fc4000206e
:1027c800c000000000000000784b00200c00000052
:1027d800000000003d4c0020010000000000000047
:1027e800584800202c000000000000003e4c00204b
:1027f8000100000000000000844800202c000000b8
:1028080000000000844b00200c00000000000000c5
:102818003f4c00200100000000000000144c002084
:102828000400000000000000204b00201000000001
:10283800000000001e480020020000000000000008
:102848005c3800200002000000000000704b0020ef
:102858000800000000000000404c002001000000bb
:1028680000000000984b0020080000000000000055
:10287800304b00201000000000000000f03e002057
:102888001001000000000000404b00201000000074
:1028980000000000a04b002008000000000000001d
:1028a800414c00200100000000000000284c0020de
:1028b80002000000000000000020002000080000c6
:1028c80000000000603a0020000200000000000044
:1028d8000449002028000000000000003c4a0020b5
:1028e8001c00000000000000584a002018000000ea
:1028f80001000000044900203c4a0020d44a00207e
:1029080000000000603a002000000000844a002017
:1029180014000000010000007c70010080700100bc
:10292800847001008c700100907001002048002024
:1029380038000000000000001034002040020000b1
:1029480000000000c031002050020000000000001c
:10295800424c002001000000000000002c4900202b
:10296800280000000000000018430020a00000001c
:10297800000000002e4c00200200000001000000b2
:1029880001000000504b0020100000000000000073
:10299800b8430020900000000000000054490020c7
:1029a80028000000000000004844002090000000bb
:1029b80000000000604b0020100000000000000034
:1029c800d44a00200c00000000000000984a0020b3
:1029d8001400000000000000a84b002008000000c0
:1029e8000000000000280020b405000000000000de
:1029f800b04b00200800000000000000284600201e
:102a08005800000000000000e04700203d000000e2
:102a180000000000603c0020700100000000000081
:102a2800b04800202a00000000000000ac4a002046
:102a38001400000000000000e04900202000000011
:102a4800000000000000002000100000000000004e
:102a5800c04a002014000000000000000010002000
:102a68000010000000000000d03d00202001000000
:102a780000000000434c002001000000000000009e
:102a8800184c0020040000000000000080460020d0
:102a98005000000000000000503600200c0200002a
:102aa80000000000d8440020780000000100000069
:102ab800e8440020e0440020e84400200000000032
:102ac8000000000025000000bc2d002000040000cc
:102ad80000000000000000000000000000000000ee
:102ae80000000000000000000000000000000000de
:102af800557f0100000000000000000000000000f9
:102b080000000000994001000000000000000000e3
:102b180000000000000000000000000000000000ad
:102b28000000000000000000b42d00200804000090
:102b380000000000004a0020200000000100000002
:102b48000100000003000000000000000000000079
:102b5800000000000000000000000000b84b00204a
:102b6800b84b00200800000000000000c04b002007
:102b780008000000010000001c47002004000000bd
:102b8800d046002050000000000000001c4c00202f
:102b98000400000000000000204c00200400000099
:102ba80000000000c045002068000000010000008f
:102bb8000100000003000000000000000000000009
:102bc800000000000000000000000000713c01004f
:102bd8000000000000000000000000005b7f010012
:102be800373d010000000000000000000000000068
:102bf80000000000000000000000000000000000cd
:102c080000000000000000000000000000000000bc
:102c18000000000000000000244c00200400000018
:102c28000000000000000000000000002222222214
:020000040000fa
:102c38002de9f04f2ded028b93b002290446069240
:102c480000f2df80ac4b5a1803eb410392f92020c5
:102c5800b3f924300c920793e36be26c934237d2ba
:102c68005a1ce2631d78202df6d0a5f10903042b28
:102c7800f2d92b2d31d02d2d36d10226e36be26c03
:102c88009342c6f101062ad25a1ce2631d789b4f73
:102c98004ff0000a1af8072045f02003934225d088
:102ca800baf1030f03d042d9069b002b4cd0e26c3b
:102cb80012b1e36b013be363069b33b3baf1030f35
:102cc80023d012b1e36b013be3630af1ff3af5e766
:102cd80020460ff02afd0546c5e70026cee7204628
:102ce8000ff023fd0546d2e70126d0e7baf1070f1a
:102cf80006d0e36be26c934214d25a1ce2631d784f
:102d08000af1010abaf1080fc4d101364ff00000e8
:102d180000f0c6827a4941ec100b13b0bdec028b6f
:102d2800bde8f08f20460ff000fd0546e8e7baf150
:102d3800000f09d1734f1af8072045f0200393427a
:102d480009d0baf1000f67d0e36c002b51d0e36bc8
:102d5800013be3634de0baf1020f06d0e36be26c8e
:102d680093420fd25a1ce2631d780af1010abaf1a4
:102d7800030fe0d1e36be26c934208d320460ff0d7
:102d8800d4fc07e020460ff0d0fc0546ede75a1cbe
:102d9800e2631878283818bf012040b1e36c13b9f2
:102da80000205949b7e7e36b013be363f8e70125e6
:102db800e36be26c93420fd25a1ce2631878a0f1dd
:102dc8003003092b06d920f02003413b192b01d9e8
:102dd8005f2805d10135ebe720460ff0a6fceee7aa
:102de8002928ddd0e26c12b1e36b013be363069b5b
:102df80073b9464b16221a6000220023204613f0ae
:102e080072ff0020002186e712b1e36b013be36308
:102e180015f1ff35f8d2c3e70c9b0893302d40f02d
:102e28003582e36be26c93424ad25a1ce26318780b
:102e3800e26c40f02000782840f02482e36b934253
:102e480042d25a1ce26318780023302840d02e283a
:102e580062d000252f4609959fed237b8ded0a7bd7
:102e68009fed237b8ded027b00224ff000084ff091
:102e780000090d92a0f1300bbbf1090f71d940f098
:102e88002002613a052a6cd92e286cd0002b40f01c
:102e9800d980e36c002b00f01b82069ae36b002ab2
:102ea80000f0c880099a002a40f0c280023be36320
:102eb800304613f0a3fe002200230af08bfc2ae719
:102ec80020460ff032fcb3e720460ff02efcbbe79c
:102ed800e36be26c93421bd25a1ce263187801231d
:102ee800b3e700bfaff30080000000000000f03f30
:102ef80000000000000000008c5f0100b65f0100c8
:102f08000000f07fbf5f01000000f87f204c002028
:102f180020460ff00afce2e7e26be16c8a4209d234
:102f2800511ce163107800252f46302808d0012273
:102f3800099291e7204602930ff0f7fb029bf2e714
:102f4800e36be26c934208d25a1ce263187815f1dd
:102f5800ff3547f1ff370123e7e720460ff0e5fb90
:102f6800f5e72e2813d1099a002a40f0b6810121ed
:102f78004246cb460991e06be16c884250d2411c35
:102f8800e163007845464f469046d94672e73928ae
:102f9800c4bf40f02000a0f1570bb8f1080f79f139
:102fa800000309da0beb0a1a18f1010249f1000bc8
:102fb800a846b9460123dee7b8f10e0f79f1000300
:102fc80017da0022bc4bdde90a010af003fccde95f
:102fd8000a01584613f012fedde90a230af0fafb4b
:102fe80002460b46dde9020106f078f8cde9020158
:102ff800dae7bbf1000fd7d00d9b002bd4d100220c
:10300800ae4bdde90a010af0e5fb0b460246dde9b5
:10301800020106f063f80123cde902010d93c3e72d
:103028002046cde910320ff080fbdde91032a9e728
:10303800033b3ce7013be36300220023204613f0f7
:1030480052fe35e7099b0bb945464f46b8f1080fc4
:1030580079f100033ddb40f0200070280cd106997f
:10306800204609f081fbb1f1004f08bf00280ad1c2
:10307800069b002b3ff4c0aee36c13b1e36b013b3e
:10308800e36300200021baf1000f3ff411af083dbf
:1030980047f1ff37bb00aa00121843ea95734b416a
:1030a80004920593dde90401079b5a42d317824233
:1030b8008b4115da824b22221a60304613f09efdae
:1030c8004ff0ff327f4b0af085fb4ff0ff327d4b0c
:1030d800f3e618f101084fea0a1a49f10009b5e7c1
:1030e800079bdde90401a3f16a02d317904271eb53
:1030f8000303c0f28b80dff8c491734d4ff00008d2
:103108000024baf1000f80f29080049bbdf91c20c6
:103118009df9300013f12004059b43f10005a41a22
:103128004feae27365eb03030e940f93dde90e3467
:10313800c117834274eb010307da079b049ac3f1b2
:1031480020039b18089300f19780089b342b00f309
:103158009680089b9fed540bc3f1540011f088fd35
:103168003046b0ee408af0ee608a13f047fdb0eecc
:10317800480af0ee680a41ec110b13f0b1fe089b07
:103188001f2b55ec104b0fdc00220023dde9020158
:1031980013f0eaf840b91af0010f05d19fed447b0e
:1031a8008ded027b0af1010a304613f027fddde9b7
:1031b8000223804689460af00dfb064650460f4614
:1031c80014f0baf842464b460af004fb22462b4656
:1031d80005f084ff32463b4605f080ff22462b4629
:1031e80014f088fe00220023cde9020113f0bcf898
:1031f8009ded020b10b1324b22221a60049813b0d5
:10320800bdec028bbde8f04f14f084be2c4b22229b
:103218001a60304613f0f2fc00224ff480130af0d3
:10322800d9fa00224ff4801347e642464b46dde9bf
:1032380002014fea4a0a12f0ddfcc0b122462b46d1
:10324800dde9020114f056fe02460b46dde90201f3
:103258000af1010a05f042ff049b13f1ff330493be
:10326800059b43f1ff33cde90201059349e7dde909
:10327800022310461946ede70023089369e7002466
:10328800002591e712b1e36b013be363069b0c9abf
:10329800cde900632946079b2046fef749fd3ae53c
:1032a8000a4938e5aff30080000000000000f03f55
:1032b80000000000000000000000b03f0000e03ff8
:1032c800204c0020ffffef7f0000f03f0000f0ffe0
:1032d800069b002b7ff4ecadaee6002b3ff4d9ad96
:0432e8002e20b3e6fb
:020000040000fa
:1032ec005b7370695f636d645d3a204661696c6500
:1032fc006420636d642077726974652c2062757329
:10330c00206572726f722e2e2e0d0a005b7370691f
:10331c005f636d645f7273705d3a204661696c65c2
:10332c006420636d6420726573706f6e73652072b8
:10333c006561642c20627573206572726f722e2e1b
:10334c002e0d0a005b7370695f636d645f7273703e
:10335c005d3a204661696c656420636d642072651a
:10336c0073706f6e736520726561640a00000000f3
:10337c005b7370695f646174615f726561645d3a0f
:10338c00204661696c6564206461746120726573a8
:10339c00706f6e736520726561642c20627573208a
:1033ac006572726f722e2e2e0d0a00005b7370699f
:1033bc005f646174615f726561645d3a2046616946
:1033cc006c6564206461746120726573706f6e73d8
:1033dc006520726561642e2e2e2825303278290dd9
:1033ec000a0000005b7370695f646174615f7265f1
:1033fc0061645d3a204661696c6564206461746146
:10340c0020626c6f636b20726561642c2062757333
:10341c00206572726f722e2e2e0d0a005b7370690e
:10342c005f646174615f726561645d3a20466169d5
:10343c006c6564206461746120626c6f636b204303
:10344c00524320726561642c206275732065727220
:10345c006f722e2e2e0d0a005b7370695f726561a0
:10346c00645f7265675d3a204661696c65642063d0
:10347c006d642c207265616420726567202825308c
:10348c00386c78292e2e2e0d0a0000005b737069a3
:10349c005f726561645f7265675d3a204661696c55
:1034ac00656420636d6420726573706f6e73652c38
:1034bc0020726561642072656720282530386c782d
:1034cc00292e2e2e0d0a00005b7370695f726561e8
:1034dc00645f7265675d3a204661696c656420645f
:1034ec0061746120726561642e2e2e0d0a0000003d
:1034fc00526573657420616e6420726574727920f4
:10350c00256420256c780d0a000000005b7370693f
:10351c005f77726974655f7265675d3a20466169b1
:10352c006c656420636d642c2077726974652072fd
:10353c00656720282530386c78292e2e2e0d0a0030
:10354c005b7370695f77726974655f7265675d3a0a
:10355c00204661696c656420636d642072657370cc
:10356c006f6e73652c2077726974652072656720a5
:10357c00282530386c78292e2e2e0d0a00000000dc
:10358c00526573657420616e642072657472792063
:10359c00256420256c7820256c780d0a000000002d
:1035ac005b6e6d5f7370695f696e69745d3a20461e
:1035bc0061696c656420696e7465726e616c2072f1
:1035cc006561642070726f746f636f6c20776974bf
:1035dc006820435243206f6e2c2072657472796997
:1035ec006e67207769746820435243206f66662e9d
:1035fc002e2e0d0a000000005b6e6d5f7370695f0c
:10360c00696e69745d3a204661696c656420696e07
:10361c007465726e616c20726561642070726f7477
:10362c006f636f6c2e2e2e0d0a0000005b6e6d5fab
:10363c007370695f696e69745d3a204661696c6587
:10364c006420696e7465726e616c20777269746542
:10365c002070726f746f636f6c207265672e2e2ee4
:10366c000d0a00005b6e6d5f7370695f696e697443
:10367c005d3a204661696c20636d642072656164fb
:10368c0020636869702069642e2e2e0d0a000000dc
:10369c005b7370695f726561645f626c6f636b5db5
:1036ac003a204661696c656420636d642c207265f8
:1036bc00616420626c6f636b20282530386c78292c
:1036cc002e2e2e0d0a0000005b7370695f7265610f
:1036dc00645f626c6f636b5d3a204661696c656414
:1036ec0020636d6420726573706f6e73652c20722d
:1036fc0065616420626c6f636b20282530386c78b0
:10370c00292e2e2e0d0a00005b7370695f726561a5
:10371c00645f626c6f636b5d3a204661696c6564d3
:10372c0020626c6f636b20646174612072656164ec
:10373c002e2e2e0d0a000000526573657420616eea
:10374c006420726574727920256420256c7820259c
:10375c00640d0a005b7370695f77726974655f62f0
:10376c006c6f636b5d3a204661696c656420636db8
:10377c00642c20777269746520626c6f636b2028ef
:10378c002530386c78292e2e2e0d0a005b7370694b
:10379c005f77726974655f626c6f636b5d3a20462c
:1037ac0061696c656420636d6420726573706f6e03
:1037bc0073652c20777269746520626c6f636b2063
:1037cc00282530386c78292e2e2e0d0a000000008a
:1037dc005b7370695f646174615f77726974655d56
:1037ec003a204661696c6564206461746120626c86
:1037fc006f636b20636d642077726974652c206233
:10380c007573206572726f722e2e2e0d0a000000d9
:10381c005b7370695f646174615f77726974655d15
:10382c003a204661696c6564206461746120626c45
:10383c006f636b2077726974652c206275732065d9
:10384c0072726f722e2e2e0d0a0000005b7370695f
:10385c005f646174615f77726974655d3a2046617b
:10386c00696c6564206461746120626c6f636b20a9
:10387c004352432077726974652c206275732065fe
:10388c0072726f722e2e2e0d0a0000005b7370691f
:10389c005f77726974655f626c6f636b5d3a20462b
:1038ac0061696c656420626c6f636b206461746128
:1038bc002077726974652e2e2e0d0a005b73706969
:1038cc005f77726974655f626c6f636b5d3a2046fb
:1038dc0061696c656420627573206572726f722efb
:1038ec002e2e0d0a000000005b7370695f77726901
:1038fc0074655f626c6f636b5d3a204661696c65e1
:10390c0064206461746120726573706f6e736520de
:10391c00726561642c2025782025782025780d0a85
:04392c00000000bfd8
:020000040000fa
:1039300070b505460e46b64bac2404fb003494f833
:103940006f300c2b37d8dfe813f00d00370055002f
:103950008700b900f2012902670169028a02920216
:103960009a029a02aa4bac2000fb05300023837414
:10397000846aa84b13f8361041f040012170816a27
:10398000c2f307644c70816ac2f307448c70816a89
:10399000c2f30724cc70816a0a71826a03ebc606ff
:1039a00073785371836aff229a710a2380f8243056
:1039b000012380f86f3070bd954aac2303fb0023d0
:1039c0000622996a204610f097fb38b9904bac203c
:1039d00000fb05300a2380f86f30ece7052e8c4b96
:1039e0004ff0ac0000fb053014bf0323022380f826
:1039f0006f30e0e7864aac2303fb002393f86a307c
:103a0000dbb2012b0fd0824aac2303fb002393f8d7
:103a10006a30dbb2022bced1ac2000fb05200a239a
:103a200080f86f30c7e7ac2303fb00230122996abb
:103a3000204610f090fb38b1754bac2000fb0530f0
:103a4000032380f86f30b6e7714bac2000fb0530e4
:103a50000a2380f86f30aee76d4aac2303fb0023e6
:103a600093f86a30dbb2012b0fd0694aac2303fb19
:103a7000002393f86a30dbb2022b9cd1ac2000fb10
:103a800005200a2380f86f3095e7ac2303fb002361
:103a90000122996a204610f05efb38b15c4bac20e5
:103aa00000fb0530042380f86f3084e7584bac20ce
:103ab00000fb05300a2380f86f307ce7544aac23c2
:103ac00003fb002393f86a30dbb2012b10d0504a7d
:103ad000ac2303fb002393f86a30dbb2022b7ff4a4
:103ae0006aafac2000fb05200a2380f86f3062e744
:103af000ac2303fb0023996a0a7883f87420ff2a19
:103b000014d0444b03ebc606b378042b3ff653aff7
:103b100001a050f823f000bf5b3b0000bb3b00005e
:103b2000853b0000b7390000e53b0000384bac2274
:103b300002fb003292f82430013bdbb282f82430e1
:103b40001bb90a2382f86f3035e7314bac2000fbfc
:103b50000530032380f86f302de70122204610f056
:103b6000fafa38b12a4bac2000fb0530082380f864
:103b70006f3020e7264bac2000fb05300a2380f88d
:103b80006f3018e72248ac2303fb050383f8752048
:103b90000122204610f0dffa38b11d4bac2000fbab
:103ba0000530052380f86f3005e7194bac2000fb8a
:103bb00005300a2380f86f30fde60122204610f020
:103bc000cafa38b1124bac2000fb0530072380f84d
:103bd0006f30f0e60e4bac2000fb05300a2380f876
:103be0006f30e8e60422204610f0b5fa38b1084bf1
:103bf000ac2000fb0530062380f86f30dbe6044b79
:103c0000ac2000fb05300a2380f86f30d3e600bffc
:103c10006c420020801a01009d4aac2303fb002364
:103c200093f86a30dbb2012b10d0994aac2303fb26
:103c3000002393f86a30dbb2022b7ff4bcaeac20d9
:103c400000fb05200a2380f86f30b4e6ac2303fba9
:103c500000239a6a127883f87420b2b98c4aac2394
:103c600003fb00239b7c7bb3894aac2303fb052326
:103c700093f82030002b3bd0ac2000fb05200a231a
:103c800080f86f300023837495e6204613f0e0fc43
:103c90007f4aac2303fb052300229a740122d96ad0
:103ca000204610f029fa38b9794bac2000fb0530da
:103cb0000a2380f86f307ee6754bac2000fb0530a0
:103cc000082380f86f3076e66421204613f034f83c
:103cd00038b96f4bac2000fb05300a2380f86f30f9
:103ce00069e66b4aac2303fb052301229a74bbe708
:103cf000674aac2303fb05230122996a204610f092
:103d00002afa38b1624bac2000fb0530072380f85b
:103d10006f3050e6204613f09bfc5d4bac2000fb5f
:103d20000530002383740a2380f86f3043e6584a35
:103d3000ac2303fb002393f86a30dbb2012b10d0d5
:103d4000534aac2303fb002393f86a30dbb2022b07
:103d50007ff431aeac2000fb05200a2380f86f30e1
:103d600029e6ac2303fb00239a6a127883f87520b6
:103d70000122d96a204610f0bff938b9444bac2073
:103d800000fb05300a2380f86f3014e6404bac206e
:103d900000fb0530082380f86f300ce63c4aac236a
:103da00003fb002393f86a30dbb2012b10d0384ab2
:103db000ac2303fb002393f86a30dbb2022b7ff4c1
:103dc000faadac2000fb05200a2380f86f30f2e545
:103dd000ac2303fb00239a6ad17883f8781091789a
:103de00083f87910517883f87a10127883f87b2061
:103df0000122d96a204610f07ff938b9244bac2053
:103e000000fb05300a2380f86f30d4e5204bac204e
:103e100000fb0530082380f86f30cce51c4aac234a
:103e200003fb002393f86a30dbb2012b10d0184a51
:103e3000ac2303fb002393f86a30dbb2022b7ff440
:103e4000baadac2000fb05200a2380f86f30b2e544
:103e5000ac2000fb0520092380f86f30abe50c4b4c
:103e6000ac2000fb05300c2380f86f30a3e5084b35
:103e7000ac2000fb05300b2380f86f309be5044835
:103e8000ac2303fb0500002380f86f3093e500bfef
:043e90006c42002060
:020000040000fa
:043e94000020704753
:020000040000fa
:103e98002de9f04f93b01d460b680593d2e900abae
:103ea8004b680c938b6808930b690f900d93cc6843
:103eb800002200235046594612f010f840b9059bdd
:103ec8005e0733d4059b13f0080731d0202303e0a5
:103ed8008bf000439b462d232370089b01275e1e11
:103ee800dff8f4922bf000434ff000084b45a5f1a2
:103ef800410108bfc24504eb070009911ad1099b8b
:103f0800192b04eb070094bfad49ae4913f008ff25
:103f1800ac4813f02bfe059b00930246089b0f98b4
:103f280021460ff0f1f913b0bde8f08f2b23d3e74a
:103f3800089ed5e7994508bfd04508d2099b192b9b
:103f480094bfa149a14913f0ebfea048e1e7302254
:103f58000270099a7b1c1a2a34bf58227822e2542c
:103f680050460022002359460237023e12f0fcf95f
:103f7800002800f078819fed907b8ded027b002575
:103f88009ded027b0c9b8ded0a7bcde906ab002bea
:103f9800acbf99464ff018094ff00008dde90a2335
:103fa800dde9060106f098fd41ec100b0cf068fb0a
:103fb800dde90a2351ec100b8ded100b09f00afc1a
:103fc80002460b46dde9060113f094ff804bcde96c
:103fd80006010022dde90a0109f0fcfb08f10103f2
:103fe8000e930c9b002bcde90a0106da0022002370
:103ff800dde9060112f0b8f928b9c14500f33981a5
:1040080009f101030e930022724bdde90a0109f060
:10401800e1fb8046894602460b46dde9060111f0c0
:104028005dff60b942464b46dde9060112f09cf996
:1040380048b1dde9100110f0c9ffc00703d44ff003
:1040480000084ff0000942464b465046594605f0d5
:1040580045f8cde90601dde9062121f000435e4976
:1040680000208b4208bf82423ff449af4ff000095d
:10407800b846cb46ca460d9b053b434533dddde9d3
:104088000223dde9060106f027fd41ec100b0cf0d8
:10409800f7fa51ec100b8ded0a0b10f097ff002882
:1040a80040f0ea80baf1000f00f0e68009f101095a
:1040b800dde90223dde90a0109f08cfb02460b4623
:1040c800dde9060113f016ff414bcde90601002298
:1040d800dde9020109f07efb0e9b0af1010a534556
:1040e800cde90201c7d1bbf1000f1dd104eb0803d4
:1040f800b9f1000f00f004810c9a002a40f3008106
:10410800059ad10700f1fc802e221a7009eb0802eb
:104118002244302103f8011f9342fbd1c8446feabf
:10412800090908f101084e440d9b0d990022013b35
:10413800954204f80820c1f1020ee25404eb08008d
:10414800bcbf6d4201220a21002d40f0cb800eeb4e
:10415800030cbcf1010f00f0c580002a03f1ff3108
:1041680014bf2d222b226254099a023b1a2a34bf0b
:1041780050227022984504eb0301e25401da13f04f
:10418800cffd059b03f00303022b12d1b51e002db2
:104198000fdd204613f0eafc013e2044031b9f423a
:1041a80040f3aa802a463021e01913f0d7fc0023f7
:1041b80008932046ade600bf000000000000f03f75
:1041c800947b0100987b01009c7b0100a07b01008f
:1041d8000000b03f000020400000f07fcde90289d8
:1041e8000135dde902231046194604f077ff8046c1
:1041f800894602460b465046594611f06ffe002884
:10420800ecd0dff820914ff00008dde9022350469a
:10421800594611f063fe00283ff4b2ae0022404b2d
:10422800dde9020109f0d6fa0022002312f09cf819
:1042380078b142464b46dde9020109f0cbfa424625
:10424800cde902014b465046594609f0c3fa824669
:104258008b46dde902010022314b09f0bbfa013d32
:10426800cde90201d1e79fed2c7b05468ded027b60
:10427800b7e7ddf8388091e6bbf1000f0ad1baf153
:10428800000f07d02e2304f80830013e08f101087a
:104298004ff0010b434604eb08014a4604e04ff097
:1042a800300c01f801cb013a002af8d1099a092803
:1042b80008f1010806f1ff36d4bf30305730192a0b
:1042c800c8444b44a6eb090608d840f02002613ade
:1042d800192a03d8109313f08cfc109be0544ff06c
:1042e8000009e5e6b5fbf1fc013b01fb1c55303547
:1042f800e554013e654627e710f8013983554de737
:10430800059ad2067ff510af2e2208f101081a701f
:104318000ae700bfaff30080000000000000f03f94
:084328000000e03f00005043db
:020000040000fa
:104330002de9f04f2ded028b97b0d2e9009a0e9344
:104340000b680493d1e9016305930b690f90099100
:104350001493cd68002200234846514611f0c2fd57
:1043600048b9049b580734d4049b13f008030c93fa
:1043700031d0202303e08af000439a462d232b708e
:10438000059b03f1ff3b01230c930c9969180d91d8
:104390004b492af0004300208b4208bf81451dd1c4
:1043a0000e9b0d98413b192b94bf4649464913f08b
:1043b000bbfc454813f0defb049b00930246059bc3
:1043c0000f9829460ef0a4ff17b0bdec028bbde894
:1043d000f08f2b23d3e7ddf814b0d6e7994208bf5e
:1043e00048450ad20e9b0d98413b192b94bf374983
:1043f000374913f099fc3648dce700220023484691
:10440000514611f0b5ff9fed2c7b8ded027b48b33b
:1044100000240e9813f0eafb002ec3b20893c0f2fa
:10442000b881672b5cd1002e08bf0126231d02db5b
:10443000b442c0f2a781652763e0cde90278013478
:104440000022244bdde9020109f0c8f94a4653462f
:104450000746884611f02afd0028eed00027dff835
:104460007c801ee00446ebe7444511da87b9002260
:10447000194b4846514609f0b1f9002281468a4657
:10448000154bdde9020109f0a9f9cde90201012787
:10449000dde9020100220f4b06f022fbcde902010b
:1044a000013cdde902234846514611f01bfd00287e
:1044b000dad1aee7aff30080000000000000f03f6b
:1044c0000000f07fa47b0100a87b0100ac7b010011
:1044d000b07b01000000244000005043d4feffffe9
:1044e000089f662f06f101060bd1002c04da9fed20
:1044f000ac7b8ded027b0024089b672b18bf36191f
:1045000066279ded027bcde9069a8ded0a7b4ff083
:104510000008dde90a23dde9060106f0e1fa41ecd5
:10452000100b0cf0b1f851ec100bb0ee408af0ee2d
:10453000608a10f04ffdb0ee480af0ee680a069b64
:104540001093079b159083f0004311939ded0a1b78
:104550009ded102b12f00efa53ec102b83f000435c
:104560000793dde90a010022914b8ded060a06f062
:10457000b7fa08f101084645cde90a01c9d1002280
:104580008c4b09f02bf9cde90a0102460b46dde917
:10459000060111f0a7fc48b9dde90a23dde90601af
:1045a00011f0e6fe30b1159bd90703d49fed7e7b59
:1045b0008ded0a7bdde90a234846514604f092fd61
:1045c000652f14bfa1464ff00009a9eb0603109315
:1045d000049b0c9ecde906014ff0000803f0100388
:1045e000cdf828801593109b9945b24604d0099bbd
:1045f0001b69053bb34251d80a9b33b9049bda06c9
:1046000042bf2e2305f80a3001360022652f05eb44
:104610000600aa5529d1149b1499013b9442ea54ef
:10462000c1f1030ebcbf644201220a21002c40f0fc
:104630009a800eeb030cbcf1000f00f39480002a6b
:1046400003f1ff3114bf2d222b226a540e9a413af6
:10465000023b192a98bf45279e4205eb0301ef5400
:10466000abf1020b01da13f05ffb049b03f00303d1
:10467000022b11d1bbf1000f0edd284613f07afaa0
:1046800005eb0b030c9a824278dd5a4630210d98d7
:1046900013f068fa0023059328468be6dde9022330
:1046a000dde9060106f01cfa41ec100b0bf0ecff03
:1046b00051ec100bb0ee408af0ee608a10f08afcec
:1046c000159b03432ad1089b672b27d1b9f1000f13
:1046d00031da08f1010a069b1293079bb0ee480af3
:1046e000f0ee680a83f0004313939ded021b9deded
:1046f000122b12f03ff953ec102b83f00043079379
:10470000dde9020100222a4b8ded060a06f0e8f9e8
:1047100009f1ff39cde90201d04664e70a9b53b99c
:10472000b9f1000f07da2e2305f80a30012301360c
:104730000bf1ff3b0a933246ab19c24605e04ff03e
:10474000300103f8011b0af1ff3abaf1000ff6d16c
:104750000bf1ff330136a3eb080b4644a84430307d
:1047600008f80200b7e7b4fbf1fc013b01fb1c4475
:104770003034ec540bf1ff3b644657e72a5c1a5483
:1047800001387fe7002cbff6bbae6627a9e60626f8
:104790004ce6089b672bfad01f460626a1e600bf11
:1047a000000000000000f03f0000000000000000da
:0847b000000024400000144049
:020000040000fa
:1047b8002de9f04f242987b006460f46144601d844
:1047c800012903d1b84b16221a6050e0f36bf26c42
:1047d800934220d25a1cf26318782028f6d0a0f110
:1047e8000903042bf2d92b2801d02d281bd12d2801
:1047f8004ff0ff3318bf00230193f26cf36b934221
:104808000dd25a1cf2631878f26c7fb1102f50d178
:1048180030280dd04de030460df087ffdde73046fb
:104828000df083fff0e700230193ede730283fd137
:10483800f36b934222d25a1cf263187840f020039b
:10484800782b2bd1f36bf26c93421bd25a1cf26378
:104858001878964b03445b780f2b40f2c680f36cb4
:10486800002b00f09e81f36b84b1023bf3630024bc
:1048780000252046294607b0bde8f08f30460df0e8
:1048880054ffdbe730460df050ffe2e7013bf363ee
:1048980000220023304612f026fae8e7002f00f045
:1048a800f3800a2f40f0a2800024814dba4619e017
:1048b8000a277e4b03445b78bb42f2d312b1f36bf9
:1048c800013bf36300220023304612f00cfa79e72b
:1048d800f36b0afb04049342a4f1300470d25a1c0f
:1048e800f2631878f26ca0f13003092b01d8ac42be
:1048f800eed90025a0f13002092ad6f84ce03fd8bd
:10490800dff8b0b14ff0993aab4508bfa24517d3cd
:104918004fea850ca3001b194cea947145eb010181
:1049280013eb03086fea020302934ff0ff3303937c
:10493800dde902ab41eb0109cb4508bfc24543d2d3
:104948005a4b184498464278ba4219d2f36bf26c23
:10495800934280f00e815a1cf263187840444378e1
:10496800bb42f3d3504b109922221a60002301f066
:1049780001021343dde91045019b18bf0023019391
:10498800f36c13b1f36b013bf363dde910239d4234
:1049980008bf9442c0f0fd801099002301f0010285
:1049a800134340f0ea80019b002b40f0e6803e4b29
:1049b80022221a60119b11f1ff3443f1ff3558e7a9
:1049c80030460df0b2fe8de718eb02044ff00003fd
:1049d80049eb0305f36b734503d25a1cf26318784d
:1049e80088e730460df0a1fe84e710277c1e3c4086
:1049f8002e4d40f0b68017237b43c3f342132b445c
:104a080093f801a1f26c2b185b789f4202d9b4f19c
:104a1800006f3bd34ff0ff33caf12001aaf1200207
:104a280023fa0af803fa01f148ea010823fa02f224
:104a3800dff878b0002548ea020823fa0af90bebf8
:104a48000003d6f84cc059788f427ff679afa94554
:104a580008bfa045fff474afaaf1200004fa00f0e3
:104a680005fa0af2caf1200324fa03f3024342eae0
:104a78000305f36b04fa0af0634541ea00041bd20c
:104a88005a1cf2631878dae70827afe704fa0af441
:104a98001c43f36b934203d25a1cf2631878b1e7b4
:104aa80030460df042feade7204c00208ce70000b8
:104ab800989999199999991930460df036febee7db
:104ac80004fb0734f36b934247d25a1cf2631878fd
:104ad800f26c2b185b789f4201d94445f0d9002528
:104ae800324bd6f84ce0034493f801c067457ff693
:104af80027af4ff000084ff0000955b1a4fb07abf2
:104b08005a460023e5fb07231bb14ff001084ff07d
:104b1800000958ea09037ff413af5ffa8cf86feacb
:104b2800080104914ff0ff310591dde904aba7fbc3
:104b3800042307fb05339b4508bf92454ff0000946
:104b4800fff4feae12eb080443eb0905f36b734563
:104b58000bd25a1cf2631878c2e730460df0e5fd17
:104b6800b6e70024dff84c80b2e730460df0ddfdf3
:104b7800b6e730460df0d9fdf0e6dde91023ab428b
:104b880008bfa24205d20a4b22221a60dde910456d
:104b98006fe6019b01337ff46cae644265eb45051b
:104ba80067e6002c7ff463ae72e600bf8ce7000076
:084bb800204c0020c6711c070f
:020000040000fa
:104bc0002de9f04fefb000230446164605910693f9
:104bd00099469a46059b1b78002b64d00cab0a9330
:104be00005a980232046cde907aacdf824a00b9380
:104bf00011f0b7fd0546059b1a780ab1252a42d166
:104c00000698284406901a78252a33d15a1c059212
:104c1000cdf824a05a782a2a04bf023305930598b8
:104c20000cbf0125002510f08efb09900246c3172a
:104c3000204612f05cf8059b1a78303a092a48d9c8
:104c400005a811f087f9059b8046187812f0ceff71
:104c5000672861dc652880f2c680612800f0c38087
:104c60003adc252800f0ef805b2800f00c81059be2
:104c7000013305937b1c40f0f980b9f1000f08bfa8
:104c80004ff0ff390fe0e36be26c93420fd25a1cf6
:104c9000e2631f78059b1b78bb420ed0e36c13b117
:104ca000e36b013be36348466fb0bde8f08f2046fd
:104cb0000df03ffd07460130ecd1069b0133069312
:104cc000059b05a901332046059311f04afd0544d3
:104cd00091e701330593aee7632800f098806428dc
:104ce000c5d106ab07aa2ca9204611f0adfc0028bf
:104cf000c0f26581059b01330593002d40f0b6801d
:104d00003346012241462ca80ef0befb0028054682
:104d100067da0135b1d0c6e7702841d00bdc6e28c8
:104d200050d02fdc6928a2d106ab07aa2ca92046b7
:104d300007f078fedbe7752813d0782829d0732890
:104d400095d1b8f1800f92d1059b01330593002dc9
:104d500077d133681a1d32601b680093012206abbd
:104d600068e006ab07aa2ca9204611f085fc0028b4
:104d7000c0f22581059b01330593002d76d1334682
:104d80002a46bfe706ab07aa2ca920460df02efa4b
:104d9000ede706ab07aa2ca920460bf04ff8e6e793
:104da00006ab07aa2ca920460bf048f80028c0f251
:104db0000681059b01330593002d57d133462a46c2
:104dc000f021a0e7059b069a01330593d317cde99f
:104dd0002c23002d4ad133462a4641462ca80ef0fa
:104de00053fba944f6e606ab07aa2ca9204603f01c
:104df0002dff0028c0f2e380059b01330593002db1
:104e000034d1324641462ca810f056fa7ee7b8f16c
:104e1000800f7ff42caf099b0bb901230993059bed
:104e2000013305935db933681a1d32601b68009326
:104e3000002206ab07a920460df0d2ff66e700234b
:104e4000f5e7002389e7b8f1800f7ff410af059be9
:104e5000e26c01330593e36b934209d25a1ce2637f
:104e60001878252808d1069b013306930025b8e75a
:104e700020460df05efcf4e7e36c002bf6d0e36b0c
:104e8000013be363f2e7b8f1800f7ff4f0ae002d51
:104e90003ad133681a1d3260d3f80080059b5a1c42
:104ea00005925a785e2a0cbf012700272cad08bf57
:104eb000023340f201123946284608bf059312f02a
:104ec00051fe059b85f800a01a782d2a1fd10133c9
:104ed0000593c7f1010385f82e30c7f10107f9b238
:104ee000059a13785d2b1bd1b8f1000f55d1e36bf8
:104ef000e26c93425ed25a1ce2631f78eb195b7836
:104f0000002b53d19b4638e04ff00008c6e75d2ade
:104f1000e3d101330593c7f1010385f85e30dce787
:104f2000002be1d02d2b06d0059b13f8012b059308
:104f30002a445770d4e7069b1b78002bf4d05d2bd6
:104f4000f2d0531c0593049b1b7850788342ebda14
:104f50000133e954f9e708f80370069a0132069222
:104f60000133e16be26c91429b4618d24a1ce2632a
:104f70000f78ea195278002aedd1e36c13b1e36b94
:104f8000013be363bbf1000f3ff471aeb8f1000fda
:104f90003ff46dae08f80ba069e60023e1e7204678
:104fa00003930df0c6fb039b0746e2e7069b013324
:104fb00006939ce720460df0bcfb07469ee705469e
:024fc000a7e662
:020000040000fa
:024fc200704736
:020000040000fa
:104fc4002de9f04196b0144641283cd00d465428b2
:104fd40039d042284fd0432865d0442800f0af810f
:104fe4004b2800f0ac81572800f0a4814a2800f037
:104ff400ac80462800f0bd80482800f0f2804d289f
:1050040000f0b580452800f06b81472800f09081be
:105014004c2800f0508152282ad1012314220deb90
:10502400020120460bf0baff10bba44b1b68069a82
:105034009a421dd1a24b1b68d3b19df82420079935
:105044000598984714e00023042205a920460bf094
:10505400a5ff68b99df815308df80430994b1b688d
:1050640033b1984b1b6801aa01219df9140098479c
:1050740016b0bde8f0810023042205a920460bf0f8
:105084008dff0028f4d19df815308df804308d4b38
:105094001b68002becd08b4b1b6801aa02219df9e5
:1050a40014009847e4e700230c2201a920460bf0e2
:1050b40075ff0028dcd19df90d30dab20a2a23d815
:1050c4009df90c10804a02eb0111c97ac9b202ebb6
:1050d4000312d17201219172bdf80e10083989b200
:1050e40011817a490a88013292b20a800a8892b2fe
:1050f4001ab90a88013292b20a80744a118889b2b4
:10510400714a02eb0312d1808df814300223adf8fa
:105114001830bdf80630adf81a30029b0793694b7e
:105124001b68002ba4d0674b1b6805aa04219df9ba
:105134000c0098479ce79df81620634b03eb001383
:105144009a739df81720da7328e10023442205a9f5
:1051540020460bf023ff00288ad15d4b1b68002bef
:1051640086d05b4b1b68159905a8984780e70627ee
:1051740000e006270023102201a920460bf00effb1
:1051840000287ff475af9df91060f3b20a2b3ff647
:105194006faf4d4b03eb061300221a73bdf90c20bd
:1051a400bdf80e00bdf80610adf81e100299089166
:1051b400db88bdf81210994215d0102d7ff658af38
:1051c40001230022114610460bf0e8fe00283ff4ac
:1051d4004faf404b1b68002b3ff44aaf3e48984703
:1051e40046e70927c6e7002a01ddaa420fdbadf82e
:1051f400182000230593334b1b68002b3ff438af72
:10520400304b1b6805aa39463046984730e795b2bb
:10521400adf81a5033012c4ad358002b3ff428af71
:1052240002eb06139b889bb2002b3ff421af02ebe9
:1052340006139b7adbb2012b7ff41aaf02eb061341
:105244009b88eb1a1bb2002b2add02eb0613b3f882
:1052540004801ffa88f833011b4ad15801234246bf
:1052640020440bf09bfee8b9174a3301d018d158fb
:105274000591adf81880bdf81a10a1eb0808adf837
:105284001a8000218180d1500e4b1b68002b3ff403
:10529400efae0c4b1b6805aa394630469847e7e643
:1052a400a846d8e70b4b1b68002b3ff4e1ae294618
:1052b4000a489847dce6072513e000bf084c0020a5
:1052c400fc4b0020044c0020bc4100202a4c002050
:1052d400004c0020104c0020f4280100e4280100b8
:1052e40007250023082205a920460bf057fe0028b5
:1052f4007ff4beae9df91400c3b20a2b3ff6b8aedc
:10530400bdf81630adf80430294b03eb0013db88ed
:10531400bdf818209a427ff4abae264b1b68002bd5
:105324003ff4a6ae234b1b6801aa294698479fe683
:105334000825d6e7002305930693082203e00023fb
:10534400059306930422002305a920460bf026feac
:1053540000287ff48dae9df91400c3b20a2b3ff6ea
:1053640087ae8df804009df915208df80520104bab
:1053740003eb00131b899bb2002b0cbf05210a21f0
:10538400002a7ff4d8aebdf81630083b9bb2084a19
:1053940002eb001213819df818305373054b1b6800
:1053a400002b3ff465ae034b1b6801aa98475fe6e8
:0853b400bc410020044c002064
:020000040000fa
:1053bc002de9f04f83b09d4b1e68197d21b93378d0
:1053cc004bbb03b0bde8f08f3378002b40f0e2818b
:1053dc0030460022531cdbb29942f2d010f8284f11
:1053ec000cb91a46f6e70232d2b2012a00f0d38188
:1053fc008e490a75ff2be4d003eb8303dc003519cf
:10540c006b79012b09d02b7b042bdad8dfe803f066
:10541c000a1d2e4f7f000b46eee72b7b042b10d082
:10542c0000232b7395f82030012b00f0878100238b
:10543c00335585f820306b71ab70eb706b702b7142
:10544c00bfe77a4b00225a75eae7ab685b6a032127
:10545c00e88898476861b0f1ff3fb2d0ab681b6930
:10546c002a467349984702232b73aae7ab681b683b
:10547c006869984768b195f8203033b9ab685b68b8
:10548c0068699847686203232b73012385f82030e1
:10549c0097e795f82030012b03d0002385f82030b6
:1054ac008fe7284612f03ef800232b71f5e75f4b8f
:1054bc005b7d012b85d05d4b01225a756b6a1b6994
:1054cc001b68b3f5007f3abf4ff40076b6fbf3f6da
:1054dc000126564c4ff400720021206912f03cfb5f
:1054ec00022385f821306869ab6800969e6800231a
:1054fc00226905f11c01b047eb69b3f1ff3f02d003
:10550c0004232b735de7494b00225a7559e795f933
:10551c002130022b06d06bb1444b00225a75032369
:10552c002b734ee7ab68db6a002b3ff44aaf28695c
:10553c00984746e73d4b1c6900236b7094f8fe318d
:10554c00552b6cd04ff0000847464ff0ff09374bf6
:10555c005c682378002b5cd1344bd3f810a02b79ea
:10556c0001332b712a7e334b53f822b0584612f07c
:10557c00fbfac6b232465946a01c12f0b0f8aa7813
:10558c00a3199a70731c54fa83f32a7930329a70e7
:10559c00b31c54fa83f300229a70a56184f801902d
:1055ac0067b317f0010f00f0b3801746b9f1ff0f86
:1055bc0024d0214b33f817301af8032062709a4428
:1055cc009af80b209af80a301b0403eb02639af842
:1055dc00092003eb02239af80820134463619af81c
:1055ec0007209af806301b0403eb02639af8052097
:1055fc0003eb02239af8042013442361b8f1000f43
:10560c0000f096800d4bea781a7001375f70012319
:10561c002370064b00225a7502232b73d1e694f8a3
:10562c00ff31aa2b0cd04ff000088de7584a002010
:10563c0099640100844a00203c7e0100284c002023
:10564c002378eb2b2bd094f8c20111f07bfc0028b3
:10565c004cd16b7800276b7094f8d20111f072fc6e
:10566c0020b147f002076b7801336b7094f8e201bc
:10567c0011f068fc002840d047f004076b78013328
:10568c006b7094f8f20111f05dfc90b347f00807d1
:10569c006b7801336b704ff00108c14657e76378a4
:1056ac003c2b03d0582b01d0fe2bccd1a378902bc4
:1056bc00c9d101236b7094f85230462b42d094f828
:1056cc005330412b44d094f85430542b46d094f89a
:1056dc003630462b48d094f83730412b4ad094f8ca
:1056ec003830542b4cd04ff000082de701231f46c7
:1056fc00b1e74ff00108c14629e794f8f20111f027
:10570c0021fc0028c2d1002f40d14ff001081be72b
:10571c0017f0020f01d0012748e717f0040f01d052
:10572c00022743e707f00807002f18bf03273de7c0
:10573c001b4bea781a7000225a7068e7284611f061
:10574c00f1fe74e64ff0000847464ff00b09fee6f9
:10575c004ff0000847464ff00b09f8e64ff00008f1
:10576c0047464ff00b09f2e64ff0000847464ff062
:10577c000609ece64ff0000847464ff00609e6e64e
:10578c004ff0000847464ff00609e0e64ff00108dd
:10579c00c146dce60023034a002111752ce600bf4c
:0857ac00284c0020584a00209f
:020000040000fa
:1057b4002573203d3e202573000000004f70656e68
:1057c40065642057494e433135303000556e61626f
:1057d4006c6520746f206f70656e2057494e43319d
:1057e40035303000556e61626c6520746f206465dd
:1057f4007465726d696e652073697a65206f6620c1
:1058040025730000457870656374656420257320f2
:10581400746f20626520256c642062797465732c32
:105824002062757420666f756e6420256c640000b8
:10583400466f756e642076616c69642025732066fa
:10584400696c6500436f6d706172696e6720696d84
:105854006167652066696c652025732061676169ed
:105864006e73742057494e4320636f6e74656e7473
:1058740073200000556e61626c6520746f206f7038
:10588400656e20696d6167652066696c65202573a6
:105894000000000057494e43206669726d776172bb
:1058a40065206d61746368657320257300000000d2
:1058b400436f6d706172696e6720736563746f7294
:1058c400202564206f7574206f6620256400000015
:1058d40052656164696e6720696d616765206669f8
:1058e4006c65202573206661696c656400000000a6
:1058f4005265616420256c64206279746573206646
:10590400726f6d2025732c206578706563746564ef
:1059140020256c64000000004661696c6564207495
:105924006f207265616420256c64206279746573ec
:105934002066726f6d2025730000000021000000b6
:1059440045726173656420736563746f72202564a6
:105954000000000045726173696e672073656374ab
:105964006f72202573206661696c65640000000015
:1059740057726f746520736563746f7220256400b9
:1059840057726974696e6720736563746f7220253a
:1059940073206661696c6564000000002e000000dd
:1059a400494d414745525f5441534b5f5354415411
:1059b400455f494e49540000494d414745525f54a3
:1059c40041534b5f53544154455f4f50454e494eec
:1059d400475f57494e430000494d414745525f5484
:1059e40041534b5f53544154455f56414c494441e4
:1059f40054494e475f494d4147455f46494c450030
:105a0400494d414745525f5441534b5f53544154b0
:105a1400455f4f50454e494e475f494d4147455fad
:105a240046494c4500000000494d414745525f54ea
:105a340041534b5f53544154455f434f4d50415282
