:020000040000fa
:10000000f0ff032001af0000e39e000013a70000f3
:1000100033b300002bb4000077bb000000000000e9
:100020000000000000000000000000006f9a0000c7
:100030003faa0000000000006f9a00006f9a0000c5
:100040006f9a00006f9a00006f9a00006f9a00008c
:100050006f9a00006f9a00006f9a00006f9a00007c
:100060006f9a00006f9a00006f9a00006f9a00006c
:100070006f9a00006f9a00006f9a00006f9a00005c
:100080006f9a00006f9a00006f9a000069d3000019
:100090006f9a00006f9a00006f9a00006f9a00003c
:1000a0006f9a00006f9a00006f9a00006f9a00002c
:1000b0006f9a00006f9a00006f9a000027da000024
:1000c00031da00003bda000045da00006f9a0000e8
:1000d0006f9a00006f9a00006f9a00006f9a0000fc
:1000e0006f9a00006f9a00000000000000000000fe
:1000f000000000006f9a00006f9a00006f9a0000e5
:100100006f9a00006f9a00006f9a00006f9a0000cb
:100110006f9a00006f9a00003561000035610000a1
:1001200035610000356100006f9a00006f9a000091
:100130006f9a00006f9a0000dd670000dd67000025
:10014000dd670000dd6700006f9a00006f9a000015
:100150006f9a00006f9a00006f9a00006f9a00007b
:100160006f9a00006f9a00006f9a00006f9a00006b
:100170006f9a00006f9a00006f9a00006f9a00005b
:100180006f9a00006f9a00006f9a00006f9a00004b
:100190006f9a00006f9a00006f9a00006f9a00003b
:1001a0006f9a00006f9a00006f9a00006f9a00002b
:1001b0006f9a00006f9a00006f9a00006f9a00001b
:1001c0006f9a00006f9a00006f9a00006f9a00000b
:1001d0006f9a00006f9a00006f9a00006f9a0000fb
:1001e0006f9a00006f9a00006f9a00006f9a0000eb
:1001f0006f9a00006f9a0000e9cf00006f9a00002c
:100200006f9a00006f9a00006f9a00006f9a0000ca
:100210006f9a00006f9a00006f9a00006f9a0000ba
:100220006f9a00006f9a00006f9a00006f9a0000aa
:100230006f9a00006f9a00006f9a00006f9a00009a
:100240006f9a00006f9a00006f9a00006f9a00008a
:100250006f9a00006f9a00006f9a00006f9a00007a
:040260006f9a000091
:020000040000fa
:10026400f8b500bff8bc08bc9e4670477dc60000c8
:10027400f8b500bff8bc08bc9e46704759c60000dc
:020000040000fa
:080284007041000001000000c0
:020000040000fa
:04028c000020704797
:020000040000fa
:100290002de9f04f55ec104b99b0476a0891834611
:1002a0000d921493229ecde9044547b910200df01c
:1002b00007fbc0e90177cbf824000760c760dbf8d3
:1002c0002430196859b15a684a60012393408b6001
:1002d00058460cf046fedbf8243000221a60002d50
:1002e000bfbf0123336025f000430593a4bf002363
:1002f0003360059cb24ba3431ad1149a42f20f7398
:100300001360049bc4f31304234300f04f85239b25
:1003100053b9ac4b23e0ac4b01930833239a1360e1
:10032000019819b0bde8f08fa64b01930333f5e7b0
:100330009ded047b0022002351ec170b8ded0e7b0d
:1003400008f090f8074660b1149a01231360239bcc
:10035000002b00f028859d4b239a1360013b0193ed
:10036000dee716aa17a99ded0e0b58460af018fbfa
:10037000c4f30a568046002e7fd00f9b1597c3f317
:100380001303dde90e4543f07f5545f44015a6f211
:10039000ff3600228e4b2046294603f021f882a327
:1003a000d3e9002302f09ef881a3d3e9002303f0f0
:1003b00019f8044630460d4603f060f97ea3d3e9f0
:1003c000002302f08ff802460b462046294603f030
:1003d00009f804460d460bf0a5ff002282460023d3
:1003e0002046294608f048f848b1504603f046f93f
:1003f00022462b4608f036f808b90af1ff3abaf15e
:10040000160f59d8734b03ebca03d3e90023dde978
:100410000e0108f031f8002850d00af1ff3a00230d
:100420001193169b9e1b731e079345bfc6f10103d4
:100430000693002300234cbf07930693baf1000fe5
:100440003edb079bcdf840a053440793002309935c
:10045000089b092b00f28e80052bc4bf043b089338
:10046000089ba3f10203ccbf00240124032b00f25c
:100470008c80dfe803f02f716f7ddde916631e4489
:1004800006f23240202811ddc0f14000049b844078
:1004900006f2124023fa00f0204303f0dff80123b4
:1004a0000446a1f1f875013e159372e7049bc0f173
:1004b000200003fa00f0f0e70123b1e71190b0e764
:1004c000069ba3eb0a030693caf1000309930023da
:1004d0001093bde700230c930d9b002b59dc0123e7
:1004e000029399460d93dbf8245000226a6004229f
:1004f00002f11400984269684fd958460bf03efa51
:10050000dbf8243028601b680193b9f10e0f00f26c
:10051000e680002c00f0e380baf1000f78dd2d4a70
:100520000af00f0302ebc30393ed007b4fea2a149a
:10053000e2068ded0a7b69d5274bdde90e01d3e993
:10054000082302f0f9f8cde9040104f00f040326b2
:10055000214d50e00123bee700230c930d9b534433
:1005600003f1010902934b46012bb8bf0123bae7ff
:100570000123f2e70023012408930c94013b00229d
:10058000029399460d921223ade701230c93023b8f
:10059000f5e70d9b02939946a5e70131696052008a
:1005a000a6e700bfaff3008061436f63a787d23f28
:1005b000b3c8608b288ac63ffb799f501344d33f52
:1005c0000000f07f29d9000020d900002ed90000ba
:1005d0000000f83fe0980000b8d10000e30708d51c
:1005e000dde90a01d5e9002301f07cffcde90a012c
:1005f000013664100835002cf0d1dde90a23dde96d
:10060000040102f099f8cde904011ae002269fe7ff
:1006100000f09f80caf100049f4ba04d04f00f0230
:1006200003ebc203d3e90023dde90e0101f05aff19
:10063000cde90401241100230226002c7ed1002bd9
:10064000e1d1119b002b00f08680dde904450022fa
:10065000934b2046294607f00fff00287bd0b9f1c5
:10066000000f78d0029b002b35dd0af1ff330a938f
:10067000204600228b4b294601f034ffcde90401ce
:10068000029c0136304602f0f9ffdde9042301f057
:1006900029ff0022844b02f0a5fe0646a1f1507707
:1006a000002c5cd10022814bdde9040102f098feb0
:1006b00032463b46cde9040107f0fcfe002840f03d
:1006c0008982324607f10043dde9040107f0d4fed8
:1006d000002840f07d82dde90e34cde90434179b1b
:1006e000002bc0f24f81baf10e0f00f34b816a4b21
:1006f00003ebca0393ed007b0d9b002b8ded027b7a
:1007000080f2d880b9f1000f00f3d48040f05f820e
:100710000022664b51ec170b01f0e4fedde90423e7
:1007200007f0befe4c464e46002840f03882019d40
:10073000312305f8013b0af1010a34e2e70705d548
:10074000d5e9002301f0cefe0136012364100835ff
:1007500073e7022675e7cdf828a04c4692e74e4b8a
:1007600003ebc40353e90201019b1c440c9b002bc7
:1007700046d002460b4600204d4901f0ddff3246cf
:100780003b4602f02dfe019d06460f46dde90401c1
:100790000bf0c8fd129002f071ff02460b46dde936
:1007a000040102f01dfe129b303305f8013b324676
:1007b0003b46cde9040107f05ffe002860d1dde98a
:1007c00004230020364902f00bfe32463b4607f078
:1007d00053fe002840f0b480a5423ff47caf0022d5
:1007e000304b3046394601f07dfe002206460f466a
:1007f0002c4bdde9040101f075fecde90401c5e7ec
:1008000032463b4601f06efecde91201019e2546bf
:10081000dde904010bf086fd074602f02fff3037bb
:1008200002460b46dde9040102f0dafd06f8017b21
:10083000a642cde904014ff0000226d11c4bdde9b0
:10084000120102f0cffd02460b46dde9040107f07c
:1008500031fe002874d1dde912230020144902f092
:10086000bffd02460b46dde9040107f005fe002846
:100870003ff431af15f8013c302b05f1ff3202d0c7
:10088000ddf828a04ae01546f4e7064b01f02afe01
:10089000cde90401bce700bfe0980000b8d100003a
:1008a0000000f03f0000244000001c400000144005
:1008b0000000e03fdde90467019ddde902233046e9
:1008c000394601f039ff0bf02dfd044602f0d6fe4b
:1008d000dde9022301f006fe02460b4630463946aa
:1008e00004f1300602f07cfd05f8016b019eae1ba1
:1008f000b14502460b4638d102f074fddde9022312
:1009000006460f4607f0d6fdc0b9dde902233046a2
:10091000394607f0a7fd08b1e1070fd44146584614
:100920000cf01ffb0023149a2b700af101031360d3
:10093000239b002b3ff4f4ac1d60f1e4cdf828a01c
:1009400015f8012c392a05f1ff3308d1019a9a4292
:1009500009d10a9a019901320a9230220a701a7852
:1009600001321a708ce71d46eae700229b4b01f02a
:10097000b9fd0022002306460f4607f073fd00284c
:100980009bd0cbe70c9a002a00f0cb80089a012a72
:1009900000f3ae80159a002a00f0a68003f23343dc
:1009a000099c069d069a1a440692079a01211a4448
:1009b000584607920cf019ff0646002d0cdd079be8
:1009c000002b09ddab42069aa8bf2b46d21a06922d
:1009d000079aed1ad31a0793099bf3b10c9b002bce
:1009e00000f0a380002c10dd3146224658460af064
:1009f00011f9424601460646584606f02dfe41468c
:100a0000074658460cf0adfab846099b1a1b04d0ad
:100a1000414658460af0fef88046012158460cf03f
:100a2000e4fe109b002b044640f381801a460146e9
:100a300058460af0eff8089b012b04467add0027a0
:100a4000236904eb830318690bf0a6fec0f12000b4
:100a5000079b184410f01f0000f08880c0f12003ad
:100a6000042b40f38180c0f11c00069b03440693d5
:100a7000079b034405440793069b002b05dd414675
:100a80001a46584609f0f2fd8046079b002b05dd0b
:100a900021461a46584609f0e9fd0446119b002bf1
:100aa00066d0214640460cf00bf9002860da00239e
:100ab00041460a2258460af0fdfb0c9b0af1ff3a18
:100ac0008046002b00f07981002331460a225846e7
:100ad0000af0f0fb029b002b064600f38980089b7e
:100ae000022b40f385804be0169bc3f1360357e79a
:100af000099b09f1ff34a342bfbf099b0994e21a85
:100b0000109bbbbf9b1810931c1b0024b9f1000f56
:100b1000b5bf069b069da3eb09054b46b8bf002356
:100b200040e7099c069d0c9e47e7099a70e7089be1
:100b3000012b15dc049b9bb9059bc3f313028ab9f7
:100b4000274f1f4037b1069b01330693079b0133a4
:100b500007930127109b002b7ff472af012077e7ea
:100b60000027f7e7049ff5e786d018461c307ce79e
:100b7000b9f1000f36dc089b022b33ddcdf808906d
:100b8000029b63b92146052258460af093fb0146b1
:100b9000044640460cf094f800283ff7c8ad0d9b82
:100ba000019d6fea030a0027214658460cf0d9f947
:100bb000002e3ff4b3ae2fb1b74203d039465846aa
:100bc0000cf0cff9314658460cf0cbf9a6e60024dc
:100bd0002646e4e7ddf828a02646a8e500002440e4
:100be0000000f07f0c9bcdf80890002b00f0ec800b
:100bf000002d05dd31462a46584609f037fd0646e8
:100c0000002f56d0716858460af0b8fe3269023299
:100c10000546920006f10c010c300cf073fc012229
:100c20002946584609f022fd019b03f10109dde93f
:100c3000012313440993049b03f0010337460793f0
:100c4000064609f1ff3321464046029306f09cfd1b
:100c5000034630330490394640460a930cf030f88e
:100c6000324606902146584608f0d5fdc2680a9bd8
:100c7000054602bb014640460cf022f80a9b02469c
:100c8000294658460c920a930cf06bf9089b0c9a73
:100c900043ea0201079b0b434d460a9b0dd1392bba
:100ca00027d0069a002a01dd049b3133029a137083
:100cb0007ae73046b8e70122e2e70699002904db2b
:100cc00008980143079801431ed1002aeedd4146f2
:100cd00001225846069309f0c9fc214680460bf0d4
:100ce000efff0028069b02dce0d1da07ded5392bc6
:100cf000dad1029a3923137015f8013c392b05f12a
:100d0000ff3246d00133d2e7002a03dd392bf0d081
:100d10000133cbe7099a09f8013c914520d04146bf
:100d200000230a2258460af0c5fab74280464ff01f
:100d300000034ff00a023946584606d10af0bafac3
:100d40000746064609f101097be70af0b3fa0023da
:100d500007460a22314658460af0acfaf1e7002766
:100d6000414601225846029309f080fc2146804604
:100d70000bf0a6ff0028bfdc02d1029bdb07bbd42f
:100d800015f8013c302b05f1ff327ff40daf15460d
:100d9000f6e7019b934204d10af1010a3123019a3b
:100da00085e71546a8e7134bfff7d9ba239b002b1d
:100db0007ff4b1aa104bfff7d2ba029b002b03dce1
:100dc000089b022b3ff7dcae019d2146404606f012
:100dd000dbfc00f1300305f8013b019a0299aa1ae5
:100de0009142bcdd414600230a2258460af062facd
:0c0df0008046eae72dd9000020d9000061
:020000040000fa
:100dfc002c1700201c00000000000000081400202c
:100e0c006c000000000000007017002010000000b3
:100e1c00000000006218002001000000000000002b
:100e2c00631800200100000000000000d414002012
:100e3c000400000000000000dc170020040000008b
:100e4c0000000000641800200100000000000000f9
:100e5c00e01700200400000001000000ffffffff6e
:100e6c007c160020280000000000000065180020ff
:100e7c0001000000000000004817002014000000d2
:100e8c0000000000e4170020040000000000000037
:100e9c00e81700200400000000000000ec17002000
:100eac000400000000000000b21700200200000047
:100ebc000000000066180020010000000000000087
:100ecc0067180020010000000000000068180020d6
:100edc000100000000000000f017002004000000da
:100eec000100000016000000f417002004000000b0
:100efc00000000005c18002002000000010000004f
:100f0c000001000069180020010000000000000032
:100f1c006a1800200100000000000000b417002037
:100f2c000800000000000000f8170020040000007a
:100f3c0000000000fc17002004000000000000006e
:100f4c00001800200400000000000000041800201d
:100f5c00040000000000000008180020040000003d
:100f6c00000000000c18002004000000000000002d
:100f7c001018002004000000000000006b18002076
:100f8c000100000001000000ff0000001418002008
:100f9c0004000000000000001818002004000000ed
:100fac00000000006c18002001000000010000008f
:100fbc0004000000a8110020b00000000000000098
:100fcc006d18002001000000000000001c1800201b
:100fdc0004000000000000002018002004000000a5
:100fec000000000024180020040000000000000095
:100ffc005e180020020000000000000028180020ed
:10100c0004000000000000006e1800200100000029
:10101c00000000006f18002001000000000000001c
:10102c00240f0020fc0000000000000080170020ae
:10103c001000000000000000d81400204000000048
:10104c000000000018150020400000000000000007
:10105c00581500204000000000000000e81000209f
:10106c00c00000000000000070180020010000000b
:10107c0000000000501600202c00000000000000b2
:10108c0088130020800000000000000004000020f5
:10109c00000800000000000098150020400000002f
:1010ac0000000000bc170020080000000000000039
:1010bc00901700200c000000000000002010002001
:1010cc00c8000000000000007118002001000000a2
:1010dc000000000072180020010000000000000059
:1010ec00c417002008000000000000007318002046
:1010fc0001000000000000002c180020040000007b
:10110c00000000001816002038000000000000004d
:10111c0058120020a0000000000000006018002001
:10112c00020000000100000001000000a4160020d5
:10113c002800000000000000f812002090000000c1
:10114c00000000005c1700201400000000000000ec
:10115c0074180020010000000000000004080020aa
:10116c00b40500000000000075180020010000000c
:10117c0000000000cc170020080000000000000058
:10118c00301800200400000000000000341800207b
:10119c0004000000000000003818002004000000cb
:1011ac000100000074140020741400206000000082
:1011bc000100000000000000ec1600200c170020bd
:1011cc00cc16002000000000000000000000000011
:1011dc000000000000000000000000000000000003
:1011ec0000000000000000000000000000000000f3
:1011fc0000000000000000000000000000000000e3
:10120c0000000000000000000000000000000000d2
:10121c00000000003c18002004000000000000004a
:10122c004018002004000000000000009c17002063
:10123c000b00000000000000a71700200b000000ae
:10124c000000000044180020040000000000000012
:10125c004818002004000000000000004c1800207a
:10126c000400000000000000d4170020080000005b
:10127c0001000000ecda0000ecda0000d8150020c8
:10128c004000000001000000010000000000000010
:10129c004a000000000000000000000000000000f8
:1012ac000000000000000000000000004a000000e8
:1012bc000000000000000000000000000000000022
:1012cc0000000000000000000000002004000000ee
:1012dc000000000050180020040000000000000076
:1012ec0054180020040000000100000050180020d9
:1012fc00cc1600202000000000000000ec1600209e
:10130c0020000000000000000c170020200000004e
:10131c0000000000b80d00206c010000010000006e
:10132c00430000000000000000000000000000006e
:10133c0000000000000000000000000000000000a1
:10134c00430000000000000000000000000000004e
:10135c000000000000000000000000000000000081
:10136c00430000000000000000000000000000002e
:10137c000000000000000000000000000000000061
:10138c00430000000000000000000000000000000e
:10139c000000000000000000000000000000000041
:1013ac0043000000000000000000000000000000ee
:1013bc000000000000000000000000000000000021
:1013cc0043000000000000000000000000000000ce
:1013dc000000000000000000000000000000000001
:1013ec0043000000000000000000000000000000ae
:1013fc0000000000000000000000000000000000e1
:10140c00a7d50000bfd2000000000000dc87000060
:10141c0019da000018da000018da000018da0000f7
:10142c0018da000018da000018da000018da0000e8
:10143c0018da000018da0000ffffffffffffffffc4
:10144c00ffffffffffff000001004153434949002c
:10145c000000000000000000000000000000000080
:10146c000000000000000000000041534349490007
:10147c000000000000000000000000000000000060
:10148c0000000000000000000000000058180020c0
:10149c00040000000000000000000000000000003c
:020000040000fa
:1014ac005b7370695f636d645d3a204661696c655e
:1014bc006420636d642077726974652c2062757387
:1014cc00206572726f722e2e2e0d0a005b7370697e
:1014dc005f636d645f7273705d3a204661696c6521
:1014ec006420636d6420726573706f6e7365207217
:1014fc006561642c20627573206572726f722e2e7a
:10150c002e0d0a005b7370695f636d645f7273709c
:10151c005d3a204661696c656420636d6420726578
:10152c0073706f6e736520726561640a0000000051
:10153c005b7370695f646174615f726561645d3a6d
:10154c00204661696c656420646174612072657306
:10155c00706f6e736520726561642c2062757320e8
:10156c006572726f722e2e2e0d0a00005b737069fd
:10157c005f646174615f726561645d3a20466169a4
:10158c006c6564206461746120726573706f6e7336
:10159c006520726561642e2e2e2825303278290d37
:1015ac000a0000005b7370695f646174615f72654f
:1015bc0061645d3a204661696c65642064617461a4
:1015cc0020626c6f636b20726561642c2062757392
:1015dc00206572726f722e2e2e0d0a005b7370696d
:1015ec005f646174615f726561645d3a2046616934
:1015fc006c6564206461746120626c6f636b204362
:10160c00524320726561642c20627573206572727e
:10161c006f722e2e2e0d0a005b7370695f726561fe
:10162c00645f7265675d3a204661696c656420632e
:10163c006d642c20726561642072656720282530ea
:10164c00386c78292e2e2e0d0a0000005b73706901
:10165c005f726561645f7265675d3a204661696cb3
:10166c00656420636d6420726573706f6e73652c96
:10167c0020726561642072656720282530386c788b
:10168c00292e2e2e0d0a00005b7370695f72656146
:10169c00645f7265675d3a204661696c65642064bd
:1016ac0061746120726561642e2e2e0d0a0000009b
:1016bc00526573657420616e642072657472792052
:1016cc00256420256c780d0a000000005b7370699e
:1016dc005f77726974655f7265675d3a2046616910
:1016ec006c656420636d642c20777269746520725c
:1016fc00656720282530386c78292e2e2e0d0a008f
:10170c005b7370695f77726974655f7265675d3a68
:10171c00204661696c656420636d6420726573702a
:10172c006f6e73652c207772697465207265672003
:10173c00282530386c78292e2e2e0d0a000000003a
:10174c00526573657420616e6420726574727920c1
:10175c00256420256c7820256c780d0a000000008b
:10176c005b6e6d5f7370695f696e69745d3a20467c
:10177c0061696c656420696e7465726e616c20724f
:10178c006561642070726f746f636f6c207769741d
:10179c006820435243206f6e2c20726574727969f5
:1017ac006e67207769746820435243206f66662efb
:1017bc002e2e0d0a000000005b6e6d5f7370695f6a
:1017cc00696e69745d3a204661696c656420696e66
:1017dc007465726e616c20726561642070726f74d6
:1017ec006f636f6c2e2e2e0d0a0000005b6e6d5f0a
:1017fc007370695f696e69745d3a204661696c65e6
:10180c006420696e7465726e616c207772697465a0
:10181c002070726f746f636f6c207265672e2e2e42
:10182c000d0a00005b6e6d5f7370695f696e6974a1
:10183c005d3a204661696c20636d64207265616459
:10184c0020636869702069642e2e2e0d0a0000003a
:10185c005b6e6d5f7370695f696e69745d3a20636e
:10186c006869706964202825303878290d0a0000d1
:10187c005b7370695f726561645f626c6f636b5df3
:10188c003a204661696c656420636d642c20726536
:10189c00616420626c6f636b20282530386c78296a
:1018ac002e2e2e0d0a0000005b7370695f7265614d
:1018bc00645f626c6f636b5d3a204661696c656452
:1018cc0020636d6420726573706f6e73652c20726b
:1018dc0065616420626c6f636b20282530386c78ee
:1018ec00292e2e2e0d0a00005b7370695f726561e4
:1018fc00645f626c6f636b5d3a204661696c656412
:10190c0020626c6f636b206461746120726561642a
:10191c002e2e2e0d0a000000526573657420616e28
:10192c006420726574727920256420256c782025da
:10193c00640d0a005b7370695f77726974655f622e
:10194c006c6f636b5d3a204661696c656420636df6
:10195c00642c20777269746520626c6f636b20282d
:10196c002530386c78292e2e2e0d0a005b73706989
:10197c005f77726974655f626c6f636b5d3a20466a
:10198c0061696c656420636d6420726573706f6e41
:10199c0073652c20777269746520626c6f636b20a1
:1019ac00282530386c78292e2e2e0d0a00000000c8
:1019bc005b7370695f646174615f77726974655d94
:1019cc003a204661696c6564206461746120626cc4
:1019dc006f636b20636d642077726974652c206271
:1019ec007573206572726f722e2e2e0d0a00000018
:1019fc005b7370695f646174615f77726974655d54
:101a0c003a204661696c6564206461746120626c83
:101a1c006f636b2077726974652c20627573206517
:101a2c0072726f722e2e2e0d0a0000005b7370699d
:101a3c005f646174615f77726974655d3a204661b9
:101a4c00696c6564206461746120626c6f636b20e7
:101a5c004352432077726974652c2062757320653c
:101a6c0072726f722e2e2e0d0a0000005b7370695d
:101a7c005f77726974655f626c6f636b5d3a204669
:101a8c0061696c656420626c6f636b206461746166
:101a9c002077726974652e2e2e0d0a005b737069a7
:101aac005f77726974655f626c6f636b5d3a204639
:101abc0061696c656420627573206572726f722e39
:101acc002e2e0d0a000000005b7370695f7772693f
:101adc0074655f626c6f636b5d3a204661696c651f
:101aec0064206461746120726573706f6e7365201d
:101afc00726561642c2025782025782025780d0ac4
:041b0c00000000bf16
:020000040000fa
:101b10002de9f04f8db00c46ddf8588093461f46f6
:101b200006460bf0d1ff0368059318460bf0e0fe64
:101b3000d8f800300690073323f0070303f10802ba
:101b400094f818a02568c8f80020d3e90023c4e958
:101b5000122394ed127b8ded027bdde9028323f0ed
:101b600000494ff0ff32a24b404649460bf094fa31
:101b700070bb4ff0ff329e4b4046494606f086fc54
:101b800030bb00220023dde9020106f075fc10b134
:101b90002d2384f84330974b1a1d25f00405baf124
:101ba000470f94bf99469146256003230025236182
:101bb000a84600975b460aaa2146304607f0f4f88b
:101bc000013040f009814ff0ff300db0bde8f08fdb
:101bd000dde90223104619460bf05efa38b1039b8b
:101be000002bbcbf2d2384f84330834bd4e76368bc
:101bf000591c0af0df081cd10623636045f480639a
:101c0000236063680493039b002b19dadde902214a
:101c100081f00043cde902232d23b8f1460f07934d
:101c200010d0b8f1450f02d1049b01330493022177
:101c300009e0b8f1470fe1d1002bdfd10123dce748
:101c40000023eae703210aab019309ab0093049a4e
:101c500008ab9ded020b3046fef71afbb8f1470fbb
:101c6000814650d1ea074ed40a9d089ab8f1470f31
:101c7000a5eb090571d1d31c03db6368934280f2a5
:101c80009a80aaf1020a5ffa8afa531e002b08937f
:101c9000b6bfc2f101032b222d22092b04f15008fb
:101ca00084f850a084f8512074dd0df12f024ff01c
:101cb0000a0e93fbfef10efb11303030632b02f164
:101cc000ff3c02f8010c5ddc3031023a0cf8011cdb
:101cd00004f152030df12f008242194655d3a1ebb6
:101ce000080805eb0803012d236102dc2268d007f8
:101cf00001d501332361079b002b3ff45aaf2d23fd
:101d000084f8433055e7049bb8f1460f09eb03050f
:101d100010d199f80030302b0ad100220023dde9e0
:101d2000020106f09ffb18b9049bc3f1010308935d
:101d3000089b1d4400220023dde9020106f092fb0e
:101d400000b10a950a9b9d428ed93022591c0a91f6
:101d50001a700a9b9d42f9d886e7baf1650f94d9ab
:101d6000baf1660f29d1002a63681cdd226113b91c
:101d70002168c90702d5013313442361a2654ff0de
:101d80000008b8e762460b4693e712f8011b03f818
:101d9000011ba1e73022134484f8522004f15401be
:101da00084f853309be713b92168c80701d5023383
:101db000e3e70123e1e74ff0670aaa4205db236866
:101dc0002261d907dad5531cd7e7002ad4bfc2f164
:101dd000020301232b44d0e723685a050ed423695c
:101de0004a4659463046b84701302fd1ebe600bf8e
:101df000ffffef7fd8d70000e0d70000baf1650ff2
:101e000040f2c98000220023d4e9120106f02afb27
:101e100088b30123884a59463046b84701303ff419
:101e2000d2ae089bab4202db2368d8070ed5dde9b2
:101e3000052359463046b84701303ff4c4ae4ff051
:101e40000008013d04f11a09454509dc23689d0796
:101e500000f1ed80e0680a9b9842b8bf1846b4e6ee
:101e600001234a4659463046b84701303ff4abaeed
:101e700008f10108e8e7089b002b2adc01236e4ae1
:101e800059463046b84701303ff49dae089b2b437e
:101e900002d12368d907d9d5dde905235946304653
:101ea000b84701303ff48fae4ff0000804f11a0a32
:101eb000089b5b42434501dc2b4691e701235246d8
:101ec00059463046b84701303ff47dae08f101086d
:101ed000eee7a36dab42a8bf2b46002b984606dd6c
:101ee0004a4659463046b84701303ff46cae0023ad
:101ef000029304f11a0328eae87804930ae0012324
:101f0000049a59463046b84701303ff45cae029b14
:101f100001330293d4f858a0029aaaeb0803934223
:101f2000eddc089bab421adb2368da0717d4089b69
:101f30009a451cdba5eb0a08b8f1000f08dd434603
:101f400009eb0a0259463046b84701303ff43bae30
:101f50004ff0000928eae87804f11a0a14e0dde9f4
:101f6000052359463046b8470130e0d12be6a5ebb2
:101f70000308e1e70123524659463046b84701308d
:101f80003ff421ae09f10109089beb1aa3eb08030a
:101f90004b45efdc5ae7012d01dcdb0735d501238a
:101fa0004a4659463046b84701303ff40caedde9a9
:101fb000052359463046b84701303ff404ae0022ad
:101fc0000023d4e91201013d06f04cfac0b92b46ba
:101fd00009f1010259463046b84701300cd1f2e50b
:101fe0000123524659463046b84701303ff4ebad25
:101ff00009f101094d45f3dc434604f15002f0e6d6
:102000004ff0000904f11a0af4e701234a46e1e718
:102010000123424659463046b84701303ff4d3ad1c
:102020000135e3680a9a9b1aab42f1dc12e70025fe
:0c20300004f11908f5e700bfe8d7000034
:020000040000fa
:10203c002de9f04196b0144641283cd00d46542869
:10204c0039d042284fd0432865d0442800f0fa817b
:10205c004b2800f0f781572800f02d824a2800f019
:10206c00bc80462800f0cf80482800f00a814d281b
:10207c0000f0c780452800f09f81472800f0c981f7
:10208c004c2800f0978152282ad1012314220deb01
:10209c000201204607f0e6fc10bbaa4b1b68069a0f
:1020ac009a421dd1a84b1b68d3b19df824200799e7
:1020bc000598984714e00023042205a9204607f050
:1020cc00d1fc68b99df815308df804309f4b1b6816
:1020dc0033b19e4b1b6801aa01219df9140098474e
:1020ec0016b0bde8f0810023042205a9204607f0b4
:1020fc00b9fc0028f4d19df815308df80430934bc1
:10210c001b68002becd0914b1b6801aa02219df996
:10211c0014009847e4e700230c2201a9204607f09d
:10212c00a1fc0028dcd19df90d20d3b20a2b27d8b5
:10213c009df90c10864b03eb0111c97ac9b203eb64
:10214c000213d97201219972bdf80e10083989b2a7
:10215c00198180490b8801339bb20b800b889bb291
:10216c001bb90b8801339bb20b807a4b198889b24f
:10217c00774b03eb0212d1800bf026fc032818d806
:10218c009df80d308df814300223adf81830bdf8e1
:10219c000630adf81a30029b07936c4b1b68002b72
:1021ac009ed06a4b1b6805aa04219df90c00984728
:1021bc0096e70bf003fc674b1b889df90d206649d5
:1021cc0009f038fbdce79df81620614b03eb00139c
:1021dc009a739df81720da7363e10023442205a952
:1021ec00204607f03ffc00287ff47aaf5b4b1b685e
:1021fc00002b3ff475af594b1b68159905a89847f0
:10220c006ee7062700e006270023102201a92046ce
:10221c0007f028fc00287ff463af9df91060f3b23f
:10222c000a2b3ff65dafbdf812800bf0cdfb0328f7
:10223c0029d8474b03eb061300221a73bdf90c2067
:10224c00bdf80e00bdf80610adf81e1002990891ed
:10225c00db889bb2434540f08780002a01ddaa420f
:10226c0018dbadf8182000230593384b1b68002ba6
:10227c003ff436af354b1b6805aa394630469847b4
:10228c002ee70927c0e70bf099fb4246344909f0c9
:10229c00d1facee795b2adf81a5033012c4ad35887
:1022ac00002b3ff41daf02eb06139b889bb2002b57
:1022bc003ff416af02eb06139b7adbb2012b7ff4d3
:1022cc000faf02eb06139b88eb1a1bb2002b2add17
:1022dc0002eb0613b3f804801ffa88f833011c4a8a
:1022ec00d15801234246204407f0bcfbe8b9184af8
:1022fc003301d018d1580591adf81880bdf81a10db
:10230c00a1eb0808adf81a8000218180d1500f4b49
:10231c001b68002b3ff4e4ae0c4b1b6805aa394636
:10232c0030469847dce6a846d8e70bf04dfb002872
:10233c003ff4d6ae0bf042fb2a460a4909f07afa72
:10234c00cee600bf281800201c18002024180020fe
:10235c00a81100205e180020a88200002018002080
:10236c00c4820000e48200000bf02efb032816d878
:10237c00102d7ff6b5ae012300221146104607f052
:10238c0071fb00283ff4acae0bf01efb00283ff4b1
:10239c00a7ae0bf013fb4a4909f04cfaa0e60bf080
:1023ac000dfb484b03eb0616f3884246464909f0f1
:1023bc0041fadde7072500e007250023082205a9df
:1023cc00204607f04ffb00287ff48aae9df914409d
:1023dc00e3b20a2b3ff684aebdf818600bf0f4faaa
:1023ec00032818d8bdf81630adf80430354b03eb84
:1023fc000413db889bb2b34214d1344b1b68002b03
:10240c003ff46eae314b1b6801aa29462046984713
:10241c0066e60825d1e70bf0d1fa32462c4909f0d3
:10242c0009fadfe70bf0d0fa03287ff659ae0bf070
:10243c00c5fa244b03eb0414e3883246254909f012
:10244c00f9f94de60023059306930422002305a910
:10245c00204607f007fb00287ff442ae9df91400dc
:10246c00c3b20a2b3ff63cae8df804009df9152043
:10247c008df80520134b03eb00131b899bb2002b2b
:10248c000cbf05210a21002a7ff49daebdf8163041
:10249c00083b9bb20b4a02eb001213819df81830db
:1024ac0053730a4b1b68002b3ff41aae074b1b6887
:1024bc0001aa984714e60023059306930822c5e762
:1024cc0014830000a8110020f482000024180020be
:0824dc002c8300004c8300007a
:020000040000fa
:1024e40070b54ff0ff0c4cf4e06c1cea11541dbfa6
:1024f4001cea135594ea0c0f95ea0c0f00f0def871
:102504002c4481ea030621ea4c5123ea4c5350ea55
:10251400013518bf52ea033541f4801143f48013a6
:1025240038d0a0fb02ce4ff00005e1fb02e506f037
:102534000042e0fb03e54ff00006e1fb03569cf08c
:10254400000f18bf4ef0010ea4f1ff04b6f5007f92
:1025540064f5407404d25fea4e0e6d4146eb060604
:1025640042eac62141ea55514feac52040ea5e508d
:102574004feace2eb4f1fd0c88bfbcf5e06f1ed837
:10258400bef1004f08bf5fea500e50f1000041eb6e
:10259400045170bd06f0004646ea010140ea02001b
:1025a40081ea0301b4eb5c04c2bfd4eb0c0541ea3d
:1025b400045170bd41f480114ff0000e013c00f352
:1025c400ab8014f1360fdebf002001f0004170bd76
:1025d400c4f10004203c35da0c341bdc04f114048f
:1025e400c4f1200500fa05f320fa04f001fa05f21b
:1025f40040ea020001f0004221f0004110ebd370e8
:1026040021fa04f642eb06015eea430e08bf20ea13
:10261400d37070bdc4f10c04c4f1200500fa04f3b6
:1026240020fa05f001fa04f240ea020001f0004148
:1026340010ebd37041f100015eea430e08bf20eabb
:10264400d37070bdc4f1200500fa05f24eea020e03
:1026540020fa04f301fa05f243ea020321fa04f032
:1026640001f0004121fa04f220ea020000ebd370e9
:102674005eea430e08bf20ead37070bd94f0000fe9
:102684000fd101f00046400041eb010111f4801f1d
:1026940008bf013cf7d041ea060195f0000f18bfce
:1026a400704703f00046520043eb030313f4801f0a
:1026b40008bf013df7d043ea0603704794ea0c0fc4
:1026c4000cea135518bf95ea0c0f0cd050ea4106da
:1026d40018bf52ea4306d1d181ea030101f0004157
:1026e4004ff0000070bd50ea410606bf104619467f
:1026f40052ea430619d094ea0c0f02d150ea01368b
:1027040013d195ea0c0f05d152ea03361cbf1046cb
:1027140019460ad181ea030101f0004141f0fe416a
:1027240041f470014ff0000070bd41f0fe4141f4ee
:10273400780170bd70b54ff0ff0c4cf4e06c1ceaee
:1027440011541dbf1cea135594ea0c0f95ea0c0fa3
:1027540000f0a7f8a4eb050481ea030e52ea03355e
:102764004fea013100f088804fea03334ff080557f
:1027740045ea131343ea12634fea022245ea1115ac
:1027840045ea10654fea00260ef000419d4208bf5d
:10279400964244f1fd0404f5407402d25b084fea0a
:1027a4003202b61a65eb03055b084fea32024ff4b6
:1027b40080104ff4002cb6eb020e75eb030e22bf13
:1027c400b61a754640ea0c005b084fea3202b6ebd3
:1027d400020e75eb030e22bfb61a754640ea5c0082
:1027e4005b084fea3202b6eb020e75eb030e22bf12
:1027f400b61a754640ea9c005b084fea3202b6eb13
:10280400020e75eb030e22bfb61a754640eadc00d1
:1028140055ea060e18d04fea051545ea16754fea33
:1028240006164feac30343ea52734feac2025fea51
:102834001c1cc0d111f4801f0bd141ea00014ff0e0
:1028440000004ff0004cb6e711f4801f04bf0143b1
:102854000020b4f1fd0c88bfbcf5e06f3ff6afaecd
:10286400b5eb030c04bfb6eb020c5fea500c50f15d
:10287400000041eb045170bd0ef0004e4eea1131e0
:1028840014eb5c04c2bfd4eb0c0541ea045170bde7
:1028940041f480114ff0000e013c90e645ea060e2b
:1028a4008de60cea135594ea0c0f08bf95ea0c0f59
:1028b4003ff43baf94ea0c0f0ad150ea01347ff4a1
:1028c40034af95ea0c0f7ff425af104619462ce778
:1028d40095ea0c0f06d152ea03353ff4fdae1046db
:1028e400194622e750ea410618bf52ea43067ff42c
:1028f400c5ae50ea41047ff40daf52ea43057ff4bc
:04290400ebae12e73d
:020000040000fa
:10290800002900f0e581f0b5ebb00c46a04b5d68fe
:10291800002d00f0c18004382e2800f2bd80dfe8c9
:1029280010f08f01bb004e01bb00bb000c01bb00c7
:10293800bb00bb00bb00bb00bb00bb002f00bb0043
:102948004c00bb00bb00bb00bb00bb00bb00bb0016
:10295800ff00bb00bb00bb00bb00bb00bb00bb0053
:10296800bb00bb00bb00bb00bb00bb00bb00cc0076
:10297800bb00a800bb00bb00a001bb00bb00e70078
:102988002b7a002b00f0888000232b7291f90130fc
:1029980083b90b78ab724bb9d5f88440002c7bd047
:1029a80000231a4619467a48a04775e0687a0af063
:1029b80094fc71e00023ab726ee00b4653f8042fd1
:1029c800c5f82d209b88a5f83130012785f833708c
:1029d80005f10c06084650f80acf41688268c368ba
:1029e800c5f80cc029616a61ab61d0f810c04169b3
:1029f8008269c369c5f81cc029626a62ab620af0c1
:102a080073ff85f82c0094f9013085f83630a378e7
:102a180085f83730e37885f83430ef72d5f884409c
:102a2800002c39d0697a39443346aa7ac9b2584851
:102a3800a04728b9564b5b680022c3f884202be0d6
:102a4800534b5b685c7a3c44e4b25c720af088ffe2
:102a5800844205d34e4b5b680022c3f884201be0f8
:102a68004b4c6368587a0af038fc63680022da72c3
:102a780012e00b78012b11d023b9eb71444a52684c
:102a880082f85030424b5b68d3f8885025b14048f3
:102a9800637822780146a8476bb0f0bdeb713c4bd8
:102aa8005b6893f89e20002aecd1d3f8a020002a76
:102ab800e8d0012283f89d20e4e7d5f88850002d5e
:102ac800ead091f900301733032b09d8dfe803f077
:102ad8000a020406032306e0012304e0062302e0b9
:102ae800072300e005232a4800220146a847d3e728
:102af8006b7913b9012385f89d30e378a17809042f
:102b080041ea036123781943637841ea0321c5f850
:102b1800a010d5f8b430002bbed01d489847bbe7ad
:102b2800084609f00dff1a4b5b68d3f88c30002b70
:102b3800b2d0014616489847aee7d5f8bc30002b0e
:102b4800aad008460af0d0fe06468df82c002022ae
:102b5800002103a80af0c0fe3246214603a80af065
:102b6800cdfc94f862308df83830022b12d094f8ee
:102b78006330074cd5f8bc50b3fa83f35b090eaa4f
:102b880003a92046a84763680022c3f8bc2083e74e
:102b98008017002004f1210630460af0a5fe0746fa
:102ba8008df83c00402200210df13d000af094fe12
:102bb8003a4631460df13d000af0a0fcd7e7084639
:102bc8000af092fe074685f8710005f151062022a9
:102bd800002130460af080fe3a46214630460af087
:102be8008dfc94f8212085f8802094f8251094f81d
:102bf80024301b0443ea016394f822100b4394f831
:102c0800231043ea01236b67234653f8261fa9675d
:102c18009b88a5f87c30012385f87e3085f85030f4
:102c2800d5f89070002f3ff437af2a4894f92c302c
:102c38000193009205f1740332460146b8472be729
:102c480091f9001085f84810d5f89430002b3ff41e
:102c580023af204c2046984763680022c3f894208d
:102c68001ae7d5f89830002b3ff416af03a80af0fe
:102c7800fefaa51c28460af037fec2b2294603a868
:102c880009f0a2fc617803a80af02dfa2378012b39
:102c980009d0022b12d00f484368d3f8983000228d
:102ca80011469847f8e60ea80af03efe0948436820
:102cb800d3f898300eaa03a99847ede623342046a6
:102cc8000af012fec2b221460ea809f0bffdede7d8
:082cd800704700bf80170020c7
:020000040000fa
:102ce000536c6f77696e6720646f776e2e2e2e0d92
:102cf0000a0000004661696c656420746f20616c95
:102d00006c6f632072782073697a652025640d0ae0
:102d10000000000028484946294661696c65642026
:102d2000746f2077616b65757020746865206368c7
:102d300069700d0a00000000484946206d657373f4
:102d4000616765206c656e6774682028256429209a
:102d500065786365656473206d6178206c656e6766
:102d6000746820282564290d0a0000002868696617
:102d70002920574946495f484f53545f5243565f95
:102d80004354524c5f3120627573206661696c0d4b
:102d90000a0000002868696629206164647265730e
:102da0007320627573206661696c0d0a0000000073
:102db000286869662920436f727275707465642093
:102dc0007061636b65742053697a65203d202575b9
:102dd000203c4c203d2025752c2047203d2025758a
:102de0002c204f50203d20253032583e0d0a000047
:102df000574946492063616c6c6261636b2069735b
:102e0000206e6f7420726567697374657265640df6
:102e10000a000000536f636b65742063616c6c6221
:102e200061636b206973206e6f74207265676973cc
:102e300074657265640d0a004f74612063616c6c87
:102e40006261636b206973206e6f742072656769bd
:102e50007374657265640d0a000000004372797036
:102e6000746f2063616c6c6261636b206973206ea8
:102e70006f7420726567697374657265640d0a000a
:102e80005369676d612063616c6c6261636b20697b
:102e900073206e6f74207265676973746572656400
:102ea0000d0a000053534c2063616c6c6261636bcc
:102eb000206973206e6f7420726567697374657220
:102ec00065640d0a00000000286869662920696ea3
:102ed00076616c69642067726f75702049440d0ad1
:102ee00000000000286869662920686f73742061fb
:102ef0007070206469646e27742073657420525862
:102f000020446f6e65203c25753e3c25583e0d0ad9
:102f10000000000028686966292057726f6e6720dc
:102f200073697a650d0a0000286869662920466180
:102f30006c736520696e7465727275707420256c8f
:102f4000780d0a002868696629204661696c656405
:102f500020746f207265616420696e746572727589
:102f60007074207265670d0a0000000028686966a9
:102f700029204661696c20746f2068616e646c65fd
:102f800020696e7465727275707420256420747285
:102f90007920616761696e2e2e0d0a0020686966ce
:102fa0005f726563656976653a20496e76616c6922
:102fb0006420617267756d656e740d0a0000000013
:102fc0004150502052657175657374656420536972
:102fd0007a65206973206c6172676572207468611c
:102fe0006e20746865207265636569766564206229
:102ff00075666665722073697a65203c25753e3c6e
:10300000256c753e0d0a00004150502052657175c7
:1030100065737465642041646472657373206265ce
:10302000796f6e6420746865207265636569766582
:10303000642062756666657220616464726573738c
:1030400020616e64206c656e6774680d0a00000074
:0c305000475270203f2025640d0a00004c
:020000040000fa
:10305c002de9f0419eb015462c2834d004461b288f
:10306c0041d006284fd00e283ad032285bd03d28cc
:10307c0069d02f2877d0342800f08b80112800f0ed
:10308c00ab80132800f0c080042800f0cf806528a6
:10309c0000f0de80092800f0ed802a2800f0fc808a
:1030ac00272800f00b81202800f01a811d2800f041
:1030bc003f810af089fc98b10af080fc22469749be
:1030cc0008f0b8fb0ce00023042203a9284606f004
:1030dc00c9fc28b9924b1b6813b103a92c20984743
:1030ec001eb0bde8f0810023082203a9284606f093
:1030fc00b9fc0028f4d18a4b1b68002bf0d003a933
:10310c001b209847ece70123302203a9284606f040
:10311c00a9fc0028e4d1824b1b68002be0d003a94a
:10312c0006209847dce70023182203a9284606f05e
:10313c0099fc0028d4d17a4b1b68002bd0d003a962
:10314c0032209847cce7012300221146284606f08e
:10315c0089fc0028c4d1724b1b68002bc0d0002105
:10316c003d209847bce764242246002103a80af0be
:10317c00b1fb0023224603a9284606f073fc002865
:10318c00aed1674b1b68002baad003a92f20984700
:10319c00a6e70023042203a9284606f063fc0028b6
:1031ac009ed10af011fc012807d85d4b1b68002b3f
:1031bc0096d000213420984792e70af0fffb039a3f
:1031cc00d3b20193c2f307230093c2f30743120e49
:1031dc00544908f02ffbe8e70023534a13700422ec
:1031ec0003a9284606f03efc00287ff479af9df831
:1031fc000c204e4b1a704a4b1b68002b3ff470afdf
:10320c0003a9112098476be700232c2203a9284619
:10321c0006f028fc00287ff463af414b1b68002ba1
:10322c003ff45eaf03a91320984759e7002304220b
:10323c001ca9284606f016fc00287ff451af384b29
:10324c001b68002b3ff44caf1ca90420984747e7a0
:10325c00002304221ca9284606f004fc00287ff455
:10326c003faf2f4b1b68002b3ff43aaf1ca96520d6
:10327c00984735e70123642203a9284606f0f2fba0
:10328c0000287ff42daf264b1b68002b3ff428af92
:10329c0003a90920984723e70123042203a9284600
:1032ac0006f0e0fb00287ff41baf1d4b1b68002bc6
:1032bc003ff416af03a92a20984711e700230422f4
:1032cc0003a9284606f0cefb00287ff409af144b67
:1032dc001b68002b3ff404af03a927209847ffe697
:1032ec000023082203a9284606f0bcfb00287ff423
:1032fc00f7ae0123bdf81020039905f1080006f084
:10330c00b1fb00287ff4ecae054b1b68002b3ff49f
:10331c00e7ae03a920209847e2e600bf7037000013
:10332c00ec170020503700006818002066180020a9
:10333c000023042202a9284606f094fb00287ff4ff
:10334c00cfaebdf80a80bdf80830adf80e301c4b7e
:10335c001b68002b3ff4c4ae1a4b1b68002b3ff4c8
:10336c00bfae194b1b88002b3ff4baae164f154c51
:10337c00134ebdf80e303a8893429abf1a46012379
:10338c000023adf80c20216808eb050006f06afb61
:10339c0000287ff4a5aebdf80c30bdf80e20d21a73
:1033ac00adf80e2043441ffa83f8336803aa216852
:1033bc001d209847bdf80e30002bdad190e600bfe7
:0c33cc00e8170020e4170020b2170020d2
:020000040000fa
:1033d80081f0004102e000bf83f0004330b54feabe
:1033e80041044fea430594ea050f08bf90ea020f2b
:1033f8001fbf54ea000c55ea020c7fea645c7feabe
:10340800655c00f0e2804fea5454d4eb5555b8bfe0
:103418006d420cdd2c4480ea020281ea030382ea51
:10342800000083ea010180ea020281ea0303362de3
:1034380088bf30bd11f0004f4fea01314ff4801cb6
:103448004cea113102d0404261eb410113f0004fc8
:103458004fea03334cea133302d0524263eb43037f
:1034680094ea050f00f0a780a4f10104d5f1200e1d
:103478000ddb02fa0efc22fa05f2801841f1000178
:1034880003fa0ef2801843fa05f359410ee0a5f14c
:1034980020050ef1200e012a03fa0efc28bf4cf07d
:1034a800020c43fa05f3c01851ebe37101f0004533
:1034b80007d54ff0000edcf1000c7eeb00006eeb40
:1034c8000101b1f5801f1bd3b1f5001f0cd34908ca
:1034d8005fea30004fea3c0c04f101044fea445221
:1034e80012f5800f80f09a80bcf1004f08bf5feaa8
:1034f800500c50f1000041eb045141ea050130bd88
:103508005fea4c0c404141eb010111f4801fa4f12a
:103518000104e9d191f0000f04bf01460020b1fa7f
:1035280081f308bf2033a3f10b03b3f120020cdab7
:103538000c3208dd02f1140cc2f10c0201fa0cf095
:1035480021fa02f10ce002f11402d8bfc2f1200cfa
:1035580001fa02f120fa0cfcdcbf41ea0c019040b0
:10356800e41aa2bf01eb0451294330bd6fea0404f9
:103578001f3c1cda0c340edc04f11404c4f12002e4
:1035880020fa04f001fa02f340ea030021fa04f3f6
:1035980045ea030130bdc4f10c04c4f1200220fa4d
:1035a80002f001fa04f340ea0300294630bd21fa8b
:1035b80004f0294630bd94f0000f83f4801306bf51
:1035c80081f480110134013d4ee77fea645c18bf45
:1035d8007fea655c29d094ea050f08bf90ea020fdc
:1035e80005d054ea000c04bf1946104630bd91ead4
:1035f800030f1ebf0021002030bd5fea545c05d1d7
:103608004000494128bf41f0004130bd14f5800415
:103618003cbf01f5801130bd01f0004545f0fe4189
:1036280041f470014ff0000030bd7fea645c1abfbe
:10363800194610467fea655c1cbf0b46024650eaf5
:10364800013406bf52ea033591ea030f41f4002121
:1036580030bd00bf90f0000f04bf0021704730b5a7
:103668004ff4806404f132044ff000054ff000017c
:1036780050e700bf90f0000f04bf0021704730b53d
:103688004ff4806404f1320410f0004548bf404212
:103698004ff000013ee700bf42004feae2014fea67
:1036a80031014fea02701fbf12f07f4393f07f4f42
:1036b80081f06051704732f07f4208bf704793f045
:1036c8007f4f04bf41f40021704730b54ff4607458
:1036d80001f0004521f000411ce700bf50ea01025b
:1036e80008bf704730b54ff000050ae050ea010204
:1036f80008bf704730b511f0004502d5404261eb74
:1037080041014ff4806404f132045fea915c3ff4b4
:10371800d8ae4ff003025feadc0c18bf03325fea51
:10372800dc0c18bf033202ebdc02c2f1200300fa02
:1037380003fc20fa02f001fa03fe40ea0e0021fa27
:0837480002f11444bde600bfcc
:020000040000fa
:10375000436f6e666c696374656420495020222053
:1037600025752e25752e25752e257520220d0a000e
:10377000524551204e6f7420646566696e65642001
:1037800025640d0a00000000494e56414c49442072
:10379000504f494e5445520d0a000000494e5641c3
:1037a0004c494420535349440d0a0000494e5641a8
:1037b0004c49442043480d0a00000000494e564140
:1037c0004c494420444843502053455256455220ca
:1037d00049500d0a00000000494e56414c49442012
:1037e000575041204b45592053495a450d0a000076
:1037f000494e56414c49442041555448454e544940
:10380000434154494f4e204d4f44450d0a0000009e
:103810000a57494e4331353030204669726d776121
:10382000726520446174613a0d0a00004669726d48
:1038300077617265205665723a2025752e25752ea2
:1038400025752053564e205265762025750d0a00a9
:103850004669726d77617265204275696c7420618a
:10386000742025732054696d652025730d0a0000ae
:103870004669726d77617265204d696e2044726988
:10388000766572205665723a2025752e25752e258f
:10389000750d0a00447269766572205665723a2089
:1038a00025752e25752e25750d0a000032323a3108
:1038b000323a343300000000446563203134203252
:1038c00030323100447269766572204275696c74d9
:1038d0002061742025732054696d652025730d0abd
:1038e0000d0a00005761726e696e673a204d697368
:1038f0006d61746368204669726d776172652056e8
:10390000657273696f6e2c20636f6e74696e756972
:103910006e672e2e2e0d0a00494e56414c4944200a
:103920004e6f206f66207363616e20736c6f7473cb
:10393000212025640d0a0000494e56414c4944207f
:103940007363616e20736c6f742074696d652120e0
:1039500025640d0a00000000494e56414c494420a0
:103960004e6f206f662070726f6265207265717590
:103970006573747320706572207363616e20736c5d
:103980006f742025640d0a00494e56414c4944206d
:1039900052535349207468726573686f6c642025b4
:1039a000640d0a00000000004e4f54005363616e26
:1039b0002077696c6c2025732073746f70206f6e94
:1039c00020666972737420726573756c742e0d0aab
:1039d000000000005f50535f5345525645525f2030
:1039e0006973206e6f7420646566696e65640d0a84
:1039f000000000004c697374656e206368616e6e30
:103a0000656c2073686f756c64206f6e6c792062d2
:103a100065204d324d5f574946495f43485f312f1e
:103a2000362f31310d0a0000504f57455220534177
:103a300056452025640d0a00494e56414c49442004
:103a4000444f4d41494e204e414d450d0a00000066
:103a500050524e47204275666665722065786365f0
:103a600065646564206d6178696d756d2073697a30
:103a700065202564206f72204e554c4c204275669f
:103a80006665720d0a0000006d6163206d756c74cf
:103a900069636173743a2025783a25783a25783a33
:103aa00025783a25783a25780d0a00004275666631
:103ab0006572204e554c4c20706f696e7465720da6
:043ac0000a0000bf39
:020000040000fa
:103ac40030b587b0af4c01e009f0e8ff09f0e2ff40
:103ad4002378002bf8d0013baa4a137009f0deffcb
:103ae40003a941f2700009f0c5ff0446002840f024
:103af4007b81039911f0010f00f0608121f0010135
:103b0400039141f2700009f0b9ff0446002840f027
:103b140058819d4b01229a70039dc5f38b05002d9e
:103b240000f021810023059305a941f2840009f0e6
:103b3400a1ff044600283cd10598934b58609d6032
:103b4400042204a908f042fa044600283cd1bdf836
:103b540012309d4202d0eb1a042b40dc09f09aff8c
:103b6400884a13780133137009f098ff9df81030d8
:103b7400012b4bd0022b6fd0042b00f08680062b38
:103b840000f09c80072b00f0b280052b40f0d3801e
:103b94007d4b5b6a002b00f0c3807b4b5b6abdf8f6
:103ba40012100839059a083289b29df81100984715
:103bb4003ae009f00dff002800f0038109f002ff4c
:103bc400724907f03bfefce009f002ff002800f018
:103bd400f88009f0f7fe6e4907f030fef1e009f0d5
:103be400f7fe10b96ff00504ebe009f0ebfe9df869
:103bf400113001939df810300093bdf812302a461d
:103c0400644907f01bfe6ff00504dae05e4bdb68e5
:103c1400c3b15d4bdb68bdf812100839059a083250
:103c240089b29df811009847574b9b78002b00f000
:103c3400d08009f0cdfe002840f08b8008f018fffa
:103c44000446c6e009f0c4fe0028edd009f0bafe2f
:103c5400514907f0f3fde7e74b4b1b695bb14a4b56
:103c64001b69bdf812100839059a083289b29df80b
:103c740011009847d8e709f0abfe0028d4d009f02a
:103c8400a1fe464907f0dafdcee73f4b5b695bb125
:103c94003d4b5b69bdf812100839059a083289b2a8
:103ca4009df811009847bfe709f092fe0028bbd0a9
:103cb40009f088fe3a4907f0c1fdb5e7324b1b6aab
:103cc4005bb1314b1b6abdf812100839059a0832f2
:103cd40089b29df811009847a6e709f079fe0028fb
:103ce400a2d009f06ffe2f4907f0a8fd9ce7264bf0
:103cf4009b695bb1244b9b69bdf812100839059a86
:103d0400083289b29df8110098478de709f060feea
:103d1400002889d009f056fe234907f08ffd83e778
:103d240009f056fe00283ff47faf09f04bfe1f490f
:103d340007f084fd78e709f04bfe10b96ff0050435
:103d440047e009f03ffe1a4907f078fd6ff00504db
:103d54003fe009f037fe9df811309df81020154919
:103d640007f06cfd6ae709f033fe10b96ff0010447
:103d740027e009f027fe104907f060fd6ff0010409
:103d84001fe000bf651800207c1600206c2d000089
:103d9400942d0000b02d0000f02d0000142e000022
:103da400382e00005c2e0000802e0000a42e00009f
:103db400c82e0000e42e0000142f000009f008feb5
:103dc40058b909f067fe134a13780133137009f0e8
:103dd40065fe9cb9204607b030bd09f0f3fd039a97
:103de4000d4907f02bfdece709f0f2fd0028e8d0bf
:103df40009f0e8fd094907f021fde2e709f0e8fdd3
:103e04000028e7d009f0defd2246054907f016fd3b
:103e1400e0e700bf65180020282f0000442f0000b1
:043e24006c2f0000ff
:020000040000fa
:103e28002de9f04f8db0074609f046feae49af4e7a
:103e38000546384609f086fd044670b9ac4bad4ad4
:103e48001860ad4b1860ad4b3068c3e9002209f02b
:103e58003bfd34600db0bde8f08f316800295fd1bb
:103e6800306809f031fd204609f03efd411c384616
:103e780006f0e8f83060002857d12378a04aa14915
:103e88003a2b08bf01340aae3346204608f0caf977
:103e98000028dfdd0a9be718e35c2d2b49d10137a9
:103ea8004ff0ff340df1200a0df11e0b4ff0000802
:103eb8000396cde9016acdf800b0334607aa9249c6
:103ec800adf81e803846adf8208008f0abf94045c3
:103ed800c0ddbdf81e30bdf82020dff838923c2147
:103ee80001fb0322bdf81c3001f6d45101fb03236a
:103ef8005c432c62814c824b23600a9b81491f449e
:103f08004a463346384608f08df9404516dc2368a2
:103f18006360774b2a6a1a60774bc3f8008099e789
:103f280009f01efc00289bd194e7214609f0e4fc27
:103f3800a3e72b2b08bf01370124b3e70a9bc4f87a
:103f48000490fc18fb5c2d2b40f08b8001344ff063
:103f5800ff370023adf81c30adf81e30adf8203027
:103f68000a93cde902a6cde900b6334607aa664909
:103f7800204608f057f9002878dc2f6aa7f5616712
:103f88000a9bef631c442f464ff0000923782c2b23
:103f980008bf013494f80080b8f14d0f78d10df1c5
:103fa8002603cde9016309ab0093039633460df16f
:103fb80022025649204608f035f903287ff44aaf13
:103fc800bdf822104b1e0b2b3ff644afbdf8242042
:103fd800531e042b3ff63eafbdf82630062b3ff6a6
:103fe80039afc7e9031287f808807b610a9b04eba5
:103ff80003080223adf81c300023adf81e30adf8dd
:1040080020300a9398f800302f2b09d1cde902a669
:10401800cde900b6334607aa3d49404608f002f903
:10402800bdf81e30bdf820203c2101fb0322bdf85d
:104038001c3001f6d45101fb0323bb610a9c1c37d9
:104048004444b9f1000f20d0686803f031f9284bd7
:104058002a6a1a60eb6b9b1a274a18bf0123136060
:10406800f8e62b2b08bf0134012772e7bdf81e3094
:10407800bdf820203c2101fb0322bdf81c3001f6cd
:10408800d45101fb03235f437ae74ff001097de731
:10409800b8f14a0f06bf0134434644230a220ba94c
:1040a8002046059309f066fbddf82c80adf8260064
:1040b800a045059b14d14d23b9f1000f07d12b72f0
:1040c80003210223c5e90313c5f8149091e785f885
:1040d80024300b220123c5e90a2300232b6388e738
:1040e80080b23b72786184e774c3000044180020f2
:1040f8004c18002077c3000048180020d41700206f
:10410800a71700207bc300008ac300009cc30000df
:08411800afc300009c1700205a
:020000040000fa
:104120002de9f047814609f0cbfc8046484601f076
:1041300027ffd9e900603c2303fb0060d9f8086041
:10414000a94ad9f8145003f6d45303fb0600d9e961
:10415000034352f82320013c012b144411dda9072d
:104160000fd1642295fbf2f302fb135343b905f21e
:104170006c7102f5967291fbf2f302fb131303b913
:10418000013405f51c53103344f620629342c9f8fc
:104190001c4000f22581462d54dd462340f26d116e
:1041a00064264ff4b77c4ff4c8779a0746d1b3fb27
:1041b000f6f206fb1232002a42d103f26c7ebefbfd
:1041c000f7f207fb12e2002a14bf0a464ff4b77257
:1041d00001339d421444e8d1844e06fb040609f0e5
:1041e00083fc834b1f682fb3d9f82070d9f81400d3
:1041f000d8f80430012f00f26c70ba46a8bf4ff017
:10420000010a834260d1d8e90e23d8f82000a2eb3e
:10421000000c66455ed2d8f81c10d8f80020c91ae8
:10422000002a5bd08e4201d3664559d3002f4ff050
:10423000000758dad8f82000304497e00a46c7e76c
:104240006246c5e7c8d0452340f26d1164264ff49d
:10425000b77c4ff4c87712e062bb93fbf6f206fb23
:1042600012324abb03f26c7e9efbf7f207fb12e2ae
:10427000002a14bf0a464ff4b772a41a013b9d42ac
:1042800003f00302e8dbcab9642295fbf2f302fbf8
:104290001353b3b905f26c7102f5967291fbf2f308
:1042a00002fb1313002b40f26d1308bf4ff4b773da
:1042b000e41a91e70a46e0e76246dee740f26d1352
:1042c000f6e74ff4b773f3e702f0f6ff00289ad150
:1042d000574644e0d21a9642fad39ce78e42a3d3c3
:1042e000002f3fdb01278aea070abaf1010f36d116
:1042f000002f4ad0c31ad9f80020d9f80ca01a44cc
:10430000c9f8002048461e4401f03afed9f80c30a6
:10431000b3eb0a0323d0012b39dcb3f1ff3fb8bf65
:104320000123d9f81c201c449b1839d56a1e91071b
:1043300030d1642192fbf1f301fb13236bbb05f237
:104340006b754ff4c87295fbf2f302fb1355002d09
:1043500040f26d1318bf4ff4b673c9f81c30012f2b
:104360007ff468afd8f83c000127304404340723b9
:1043700094fbf3f3c3ebc303e41a48bf0734c9f853
:104380002070c9f81840bde8f0871b1ab3e74ff05a
:10439000ff33c6e74ff4b673dfe740f26d13dce797
:1043a000aa0717d1642195fbf1f201fb1252a2b9c1
:1043b00005f26c7501f5967195fbf1f201fb125552
:1043c000002d40f26d1208bf4ff4b7729342a8bfa0
:1043d0009b1ac2e740f26d12f8e74ff4b772f5e7a7
:1043e0004ff0ff30cfe700bf04cf00008051010045
:0443f0004818002049
:020000040000fa
:1043f4002de9f047089e04468846002b40f085804e
:104404008a42154648d9b2fa82f24ab1c2f120076b
:1044140001fa02f320fa07f7954047ea03089440ab
:104424004fea154e230cb8fbfef71ffa85fc0efb72
:10443400178843ea084307fb0cf1994209d9eb18a2
:1044440007f1ff3080f0e380994240f2e080023fc0
:104454002b445b1aa4b2b3fbfef00efb103344ea08
:10446400034400fb0cfca44509d92c1900f1ff33cb
:1044740080f0cb80a44540f2c88002382c4440ea46
:104484000740a4eb0c0400271eb1d4400023c6e966
:1044940000433946bde8f087002a53d0b2fa82f2cd
:1044a400002a40f0b680491b4fea154e1ffa85f8e2
:1044b4000127b1fbfefc230c0efb1c1143ea014354
:1044c40008fb0cf1994207d9eb180cf1ff3002d22a
:1044d400994200f2ec808446591aa3b2b1fbfef073
:1044e4000efb101443ea044408fb00f8a04507d966
:1044f4002c1900f1ff3302d2a04500f2dc801846eb
:10450400a4eb080440ea0c40bee78b4208d9002e15
:1045140078d00027c6e9000138463946bde8f0875f
:10452400b3fa83f77fb98b4202d3824200f2bd8093
:10453400841a61eb030301209846002ea9d0c6e932
:104544000048a6e7ffdec7f12005bb4022fa05fcc0
:104554004cea030c01fa07f420fa05f821fa05f3f2
:104564004fea1c4e48ea0404b3fbfef9210c0efb8f
:1045740019331ffa8cf841ea034309fb08fa9a45f8
:1045840002fa07f200fa07f10bd91ceb030309f155
:10459400ff3080f088809a4540f28580a9f10209b5
:1045a4006344a3eb0a03a4b2b3fbfef00efb103387
:1045b40044ea034400fb08f8a04508d91ceb0404b2
:1045c40000f1ff336bd2a04569d90238644440ea54
:1045d4000940a4eb0804a0fb02894c45c6464b469f
:1045e40054d351d0002e69d0b1eb0e0264eb030416
:1045f40004fa05f522fa07f3fc401d43c6e900540a
:10460400002746e73746304643e7184637e707466c
:104614001fe7c2f1200320fa03f7954001fa02f0e4
:1046240021fa03f34fea154e3843010cb3fbfef7ae
:104634001ffa85f80efb173341ea034107fb08f321
:104644008b4204fa02f407d9691807f1ff3c28d217
:104654008b4226d9023f2944cb1a81b2b3fbfef028
:104664000efb103341ea034100fb08f38b4207d9e8
:10467400691800f1ff3c10d28b420ed9023829444c
:10468400c91a40ea074714e74145abd2b8eb020e1a
:1046940069eb0c0201381346a4e76046f0e71846bc
:1046a40095e76746d8e781467be7384645e7acf1ae
:1046b400020c2b4410e702382c4421e73746e8e685
:020000040000fa
:1046c4002de9f04f0c46adf5237d0021cde94411d1
:1046d4009c49a0910df104089b499c4fdff870920e
:1046e400cdf818810646a191009392f800a0baf182
:1046f400000f00f021811af8073013f0080302f1cb
:10470400010519d06368002b0fdd23681a78ba5ca1
:10471400120701d42a46e8e7459a013245926268b5
:104724000133013a62602360ece7a19b21463046e5
:1047340098470028e9d0ede7baf1250f7ed14193df
:10474400439353782a2b02bf1023951c41930a22ca
:10475400ab461bf8011ba1f13003092b22d903221c
:104764007b4806f0cbf838b1a0eb09030120984050
:10477400419b184341905d4615f8013b672b49d88e
:10478400652b80f0a180472b13d8452b80f09c80ab
:10479400002b00f0d380252b50d0032347930a230a
:1047a400429316e0439b02fb0313303b43935d4665
:1047b400cee75b2b69d027d8582beed1419a42f42f
:1047c4000072419210226f2b429234bf03230423c0
:1047d40047936368002b79dd419b590604d4236811
:1047e4001a78ba5c120779d4479b022b00f38980ac
:1047f4006b46224641a9304605f0e0fd012800f051
:104804009b80022886d12fe0632b49d0642bc4d12e
:104814000a22d8e7702b2fd008d86e2b46d030d878
:10482400692bbad1002342930323d1e7752befd030
:10483400782bc3d0732bb0d10223c9e76368002b54
:104844000cdd23681a78524576d1013362682360ff
:10485400459b013a0133626045935be7a19b214686
:10486400304698470028ecd0449800285dd10138a0
:104874000df5237dbde8f08f419a42f0200241926c
:104884009ce7082342930423a2e72946404607f005
:104894000df9419b43f0400341930546012397e7fb
:1048a400419b43f040034193002391e74198c306a1
:1048b4003ff530af009b459a191d00911b68c00756
:1048c4004cbf1a801a6025e7052381e7a19b214686
:1048d4003046984700283ff47fafc5e7459a013238
:1048e40045926268013a002a626002dd0133236066
:1048f40075e7a19b21463046984700283ff46fafe7
:10490400b2e7042b06dc6b46224641a9304600f090
:10491400b1fe73e70f4b002b3ff4fcae6b4622460f
:1049240041a93046aff3008068e7a38913f0400f34
:1049340018bf4ff0ff309be7449899e74ff0ff30e2
:1049440096e700bfb1b3000039ca0000dd8700005c
:08495400f8da00000000000089
:020000040000fa
:10495c002de9f04f87b005460e4693469a46109fb8
:10496c00bdf84490bdf84880904c01e009f092f8f5
:10497c0009f08cf82378002bf8d0013b8b4a13708c
:10498c0009f088f806f07f038df815308df8145077
:10499c00002f37d009f1080343449bb2adf8163011
:1049ac0040f23c62934200f2ef8008f079f8044642
:1049bc00002840f0de8000230393adf8063002930c
:1049cc00029b1d430295029b43ea06260296029b1c
:1049dc00bdf8162043ea02430293029941f28c007f
:1049ec0009f048f8044688b108f0f0fd09f04ef8db
:1049fc006e4a13780133137009f04cf8204607b057
:104a0c00bde8f08f0af108039bb2c7e700230293bd
:104a1c00029b43f002030293029941f2780009f0e1
:104a2c0029f804460028dfd100230393adf80630a3
:104a3c00bdf806309bb2b3f57a7f38d241f27804d8
:104a4c005b4d12e0012009f001f8029b13f0020ffc
:104a5c0026d0bdf8063001339bb2adf80630bdf858
:104a6c0006309bb2b3f57a7f21d202a9204608f01a
:104a7c00fdffe0b9bdf806309bb2b3f5fa7fe4d385
:104a8c00bdf806309bb2b3f5fa7fdbd808f09cff7b
:104a9c000128d7d908f092ff294606f0cbfed1e7c2
:104aac0003a9444808f0e2ff044600284bd1039bbd
:104abc00002b4bd0039b04930498082205a907f004
:104acc00adfa044600288fd1049b08330493bbf144
:104adc00000f0ad004985246594607f09ffa044634
:104aec00002881d1049b5344049387b1049aa8eb0a
:104afc000a031344049304984a46394607f08efa85
:104b0c00044600287ff470af049b4b440493039b32
:104b1c009b000293029b43f002030293029941f221
:104b2c006c0008f0a7ff044600287ff45daf08f086
:104b3c00dbf8044608f0aaff1c4a13780133137003
:104b4c0008f0a8ff5ae7002303934de708f0ccf8d0
:104b5c00044608f039ff032802d86ff0020445e739
:104b6c0008f02cff2246144906f064fe6ff0020494
:104b7c003ce708f029ff00283ff438af08f01eff8f
:104b8c000e4906f057fe31e708f01eff10b94ff042
:104b9c00ff342be708f012ff40f23c63bdf81620ff
:104bac00074906f047fe4ff0ff341fe76518002059
:104bbc00e02c000000041500f42c0000142d000063
:044bcc00382d000080
:020000040000fa
:104bd000431e13f1030f00f20281f0b587b00446c3
:104be00090f901300133032b00f2f680dfe803f087
:104bf000040214cb03780bb907b0f0bd436800255d
:104c00001d71284608f01cfc07f0beff07f044fdac
:104c100008f004ff2570efe7436873b108f0dafe8f
:104c200001280dd806f09cfd08f0e2fca0b108f0c8
:104c3000d1fe58b9ff236370dee7ff234370dbe743
:104c400008f0c2fe664906f0fbfdebe708f0bcfe8b
:104c5000644906f0f5fdede7666808f01dff0025e4
:104c600086f8f85008f01cff08f0aafc029503959e
:104c7000049505955c4b019301a801f077fe00288f
:104c800075d107f043fe594807f0e8fb584d002165
:104c90006971a971e9712972e972012785f8387083
:104ca000022685f839601e2385f83a3085f83b6086
:104cb000d32385f83c304ff49673eb87a5f840106a
:104cc00085f84810e96485f85010c5f88410c5f8d7
:104cd0008810c5f88c10c5f89010c5f89410c5f868
:104ce000981085f89c1085f89d1085f89e70c5f881
:104cf000a010c5f8a410c5f8a810c5f8ac103d4b1d
:104d0000c5f8b030c5f8b410c5f8b810c5f8bc1077
:104d1000c5f8c010c5f8c410c5f8c810ff2385f841
:104d2000d130c5f8ec10344ac5f8d420334bc5f85f
:104d3000d830334bc5f8dc30c5f8f410314807f0f3
:104d4000cbfc08f0a9fe85f8d07008f0a9fe6068d9
:104d5000423008f07efa667008f03cfeb8427ff6fa
:104d60004baf08f031fe284906f06afd44e708f031
:104d700031fe10b9ff2363703ee708f025fe23499a
:104d800006f05efdf6e7456808f086fe95f8f83017
:104d900013b908f085fe2fe7013b85f8f83008f0dd
:104da0007ffe94f90130022b7ff426af63681b79f4
:104db00013f0080f7ff420af08f052fe00283ff4f4
:104dc0001baf646808f068fe94f8f830013384f88b
:104dd000f83008f065fe0fe7ff2343700ce77047db
:104de00004b600001cb6000009290000e18900009b
:104df000240f0020c0a80a0131b10000c95d0000e5
:104e000081c0000041c5000058b6000038b600005f
:020000040000fa
:104e10002de9f0418cb0441e14f1030f00f206811d
:104e20004468002c00f00481002900f0038184789c
:104e30001cb901200cb0bde8f0811f4616460d4696
:104e400004460021284606f065fe002800f0f480a4
:104e500046b1337823f00403013bdbb2012b01d9c7
:104e60000220e7e795f8288008f1ff33dbb2fe2b3c
:104e700028bf4ff0ff08606806f0e7fd002800f04b
:104e8000dd8095f82730002b42d005f121030993ee
:104e90000a9595f820308df82c308df82d80002e55
:104ea00038d03378012b35d0022b43d0052b57d087
:104eb000062b40f0c58096f88130002b00f09680dc
:104ec00001238df82130351d01955c21284608f01d
:104ed0005dfb01300290451badf8185008f008fd4d
:104ee000adf81a00f36e0393736f0493b36f0593d9
:104ef000336fadf81c30f36fadf81e3096f880308c
:104f00008df8203001aa09a9022000f081fe05e0f9
:104f10000023bce709a9022007f000fe002840f0aa
:104f200091806368c3f888706368d871636883f898
:104f30009d007fe73379402b0bd00022019205368c
:104f400002968df80c3001aa09a9022003f0bcfae0
:104f5000e4e705360196002302938df80c30f2e762
:104f600096f86d3113b301238df81730351d019577
:104f70005c21284608f00afb01300290451badf881
:104f8000105008f0b5fcadf8120006f16903039368
:104f9000b6f86a31adf8143096f86c318df81630e9
:104fa00001aa09a9022002f087fcb7e700238df8c7
:104fb000173006f104084021404608f0e7fa05469c
:104fc0000190cdf8088040b108f092fcadf81000d7
:104fd000a5eb0805adf81250d7e70023adf8103067
:104fe000404608f085fcadf81200cee700238df8ae
:104ff000213006f104084021404608f0c7fa054672
:105000000190cdf8088040b108f072fcadf81800ae
:10501000a5eb0805adf81a5064e70023adf8183089
:10502000404608f065fcadf81a005be7022001e796
:105030000220ffe60220fde60920fbe60620f9e655
:085040000620f7e60620f5e664
:020000040000fa
:105048002de9f04306460c4601f14300097e85b080
:105058006e29984617460c9b00f0ba8024d863291d
:1050680039d00ad8002900f0c380582900f091806f
:1050780004f1420584f8421035e0642901d0692919
:10508800f6d125681a6815f0800f02f104012cd0ba
:1050980012681960002a03da2d23524284f843303b
:1050a800dff8bcc10a233fe0732900f0a58008d8c7
:1050b8006f2921d07029dbd1226842f020022260ba
:1050c80003e0752918d07829d2d1782284f84520b0
:1050d800dff890c161e01a68111d1960136884f83f
:1050e800423004f14205012393e01268196015f07b
:1050f800400f18bf12b2cde7d4f800c01a681cf0f0
:10510800800f02f104051d6001d0126803e01cf055
:10511800400ffad01288dff848c16f290cbf082366
:105128000a23002184f843106568a560002da2bffa
:10513800216821f0040121600ab9002d46d00546f6
:10514800b2fbf3f103fb112e93421cf80ee005f8b5
:1051580001ed39d9082b0bd12368da0708d5236963
:1051680062689a42debf302305f8013c05f1ff353d
:10517800401b2061cdf800803b4603aa21463046fb
:1051880003f00efe013049d14ff0ff3005b0bde805
:10519800f083dff8ccc084f845101d68216855f805
:1051a800042b1d600d060bd5cd0744bf41f020012f
:1051b80021601ab9236823f0200323601023b0e785
:1051c8004b0648bf92b2efe70a46b9e70546c1e782
:1051d8001a68d4f800c06169151d1d601cf0800fa5
:1051e800136801d0196003e01cf0400ffad0198051
:1051f800002323610546bde71a68111d196015686b
:1052080062680021284605f077fb08b1401b606002
:1052180063682361002384f84330abe723692a4697
:1052280039463046c0470130aed023689b0713d4b7
:10523800e068039b9842b8bf1846a7e701234a468f
:1052480039463046c04701309ed00135e368039a9d
:105258009b1aab42f2dcebe7002504f11909f5e7ec
:0852680026d3000037d300003b
:020000040000fa
:105270002de9f04f89b00490824b93f80080b8f18b
:10528000010f06d06ff005030393039809b0bde842
:10529000f08f8b46924600221a70baf1010f08bfb8
:1052a0004ff0020a0927dff8e491774b03f2cc5361
:1052b000059387e008f08efb002879d008f084fb86
:1052c000049a714b03f2944106f0bafa70e008f0c8
:1052d00081fb00286cd008f077fb049a6a4b03f23c
:1052e000cc4106f0adfa63e0b4f5005f8cbf4346f5
:1052f000032363f00f038df81b3001210df11b0018
:1053000007f06afaf8b129460beb060007f064fad9
:1053100068b399f80030002b35d02e4436b2641ba8
:10532000a4b2002c00f092802546b4f5005f28bf9f
:105330004ff40055adb2002ed6d0b4f5005f94bf47
:1053400003230223d5e708f045fb40b908f042fbf0
:1053500070b308f039fb059906f072fa28e008f0fe
:1053600033fb494b03f5a26106f06afaeee708f059
:1053700031fb0028ead008f027fb434b03f5aa6174
:1053800006f05efae2e7022107a807f025fa0028f6
:10539000c3d108f01ffb0028d8d008f015fb3a4b0a
:1053a00003f28c5106f04cfad0e708f013fbf8b981
:1053b00008f010fb002836d107f084fe013fb7f15a
:1053c000ff3f3cd00022009253460499c72001f0d1
:1053d00093fb00287ff46eafc72003f05bfd0390c2
:1053e00000287ff474af0026adf81c6054469be79c
:1053f00008f0eafa244b03f2fc5106f021fad7e751
:1054000008f0e8fa0028d3d008f0defa9df81e3044
:1054100000939df81d309df81c201b4901f5c561c6
:1054200006f00efac4e708f0cffacdf800a0049b0e
:105430003a46154901f58f6106f002fabce7114bb7
:1054400001221a706ff0050303931ee799f80030ec
:10545000002b0cbf02240324214607a807f0dbf928
:105460000028a2d008ab234413f8053c002bc7d179
:1054700008ab1c4414f8063cc32bc1d1014b0122dc
:105480001a7002e76a180020ac14000069180020a6
:020000040000fa
:105490002de9f04f83b00d9e002e00f0d7800093d1
:1054a00015460f46019104464ff0ff33336006f076
:1054b00089ff8046002800f0c980002d69d0002fa8
:1054c00067d0b8f80090694a6c2303fb092393f86e
:1054d000603033b16c2303fb0923db6da34240f042
:1054e000b5804ff06c0b0bfb09fb604b03eb0b0a19
:1054f000504604f027f9002852d0b8f800c05b4aa3
:105500006c2303fb0c239f69d869002800f0a58059
:105510003b785bb107f1240200230133984200f08d
:105520009c80174612f8241b0029f6d101223a70fc
:1055300000223a624d4a6c2101fb0c21888c98f8bc
:105540000020120242ea0042dbb21343fb618b8c63
:1055500001339bb24ff6ff72934208bf01234349c8
:105560006c2202fb0c1cacf82430009b7b60019b7e
:10557000bb6001237b7500233b75bc61d8f81830f4
:10558000f3b1082b2ed86d00fd600c9b5b003b61d6
:1055900019e00c9b002b59d0009b002b91d155e0ba
:1055a00008f018fa002851d008f00efa304907f038
:1055b000d1fb4be008f008fa2e4907f0cbfb50e096
:1055c000fd600c9b3b61fb693360daf820307bb1f6
:1055d000264b9b44dbf82030002b34d01a6a72bb78
:1055e0001a462fe0ad00fd600c9b9b003b61eae793
:1055f000caf8207002237b75384605f021fa1b4a51
:105600006c2303fb092393f92c30b3f1ff3f08d03f
:10561000164a6c2303fb092393f92d30b3f1ff3fa6
:1056200017d1124b6c2202fb0939d9f814305c688f
:105630003b697a68f968b868a04704e01a46136abb
:10564000002bfbd11762504604f0d6fa03b0bde838
:10565000f08f384600f0f0fff5e708f0bbf90028be
:10566000a8d1504604f0c8faf0e700bf08140020a3
:085670009c7a0000b87a0000ea
:020000040000fa
:105678002de9f04f9946744b0c468246164693e83e
:10568800070087b003ab83e80700704ba169704a35
:10569800032918bf1a46a36801925a1eb2f5ae7fb5
:1056a80088bf6ff4ae75274682bf03eb050840f24a
:1056b8005d13a36057f81c3b43f4506398bf4ff049
:1056c800000823603d464ff0000b316803ab02220f
:1056d800097853f82b0005f00ff928b3bbf1010f37
:1056e80059d162682ab92268082342f400726360bb
:1056f8002260226822f4a0622260a268511ea16082
:1057080092b13268511c3160127805f8012b726829
:10571800013a002a726007dcd4f8802131465046ed
:105728009047002840f085800bf1010bbbf1030f77
:10573800cbd163680bb90a23636063684549606924
:10574800c91a06f0b1f94ff0000ba3682268002bc4
:105758003dd03168606991f800c010f80c0000284d
:1057680035d0bcf1300f24d1100522d50bf1010b37
:10577800b8f1000f03d0013308f1ff38a360736854
:10578800013b002b73601bdd336801333360a36872
:10579800013ba360d9e7bbf1020faed1226802f446
:1057a800c061b1f5007fbfd11023636042f48072fd
:1057b800a2e722f4106222600b7805f8013bdee7cd
:1057c800d4f880313146504698470028dfd0236806
:1057d800d9050dd5bd4209d915f8011cd4f87c317d
:1057e80032465046984705f1ff384546bd4228d015
:1057f800226812f0100213d12a706368019e39469c
:105808005046b047d9f8003021681a1dc9f8002061
:1058180011f0200f1b680fd01860e3680133e360b4
:10582800ed1bab4425695d442561002007b0bde848
:10583800f08f4ff0000bcae7ca074cbf18801860fa
:10584800ebe70120f2e700bfe0d10000f5da000045
:08585800fdda0000fcd10000a4
:020000040000fa
:10586000436f6e6e65637465640d0a004661696c12
:10587000656420746f20636f6e6e6563740d0a003b
:10588000446973636f6e6e65637465640d0a00002e
:10589000536f636b657420256420636f6e6e656360
:1058a0007420737563636573730d0a004745542054
:1058b0002f696e6465782e68746d6c20485454505e
:1058c0002f312e310d0a486f73743a206578616d5f
:1058d000706c652e636f6d0d0a557365722d41678f
:1058e000656e743a204d6f7a696c6c612f352e307d
:1058f000202857696e646f7773204e542031302e04
:10590000303b2057696e36343b207836343b20726a
:10591000763a39352e30290d0a4163636570743a41
:10592000202a2f2a3b713d302e380d0a0d0a000027
:10593000536f636b657420256420636f6e6e6563bf
:1059400074206572726f722025640d0a00000000d9
:10595000536f636b657420726563656976652c208f
:1059600073697a65203d202564206279746573200f
:10597000000000002e2e2e005d0d0a0052656365aa
:10598000697665206f6e20736f636b657420256484
:10599000206661696c65640d0a000000536f636bdb
:1059a00065742025642073656e6420636f6d706c70
:1059b000657465640d0a0000495020616464726575
:1059c00073732069732025730d0a00000d0a00000f
:1059d0003d3d3d3d3d3d3d3d3d3d3d3d3d3d3d3df7
:1059e0003d3d3d3d3d3d3d3d3d3d3d3d3d3d0d0a4a
:1059f000000000004b6c617475204e6574776f7207
:105a00006b732059656c6c6f7762697264207630b5
